:100000000C94F5030C9421040C9421040C94210409
:100010000C9421040C9421040C9421040C942104CC
:100020000C9421040C9421040C9421040C942104BC
:100030000C9421040C9421040C9421040C942104AC
:100040000C9421040C9421040C9421040C9421049C
:100050000C9421040C9421040C9421040C94890721
:100060000C9421040C94B0090C94900A0C94210473
:100070000C9421040C9421040C9421040C9421046C
:100080000C9421040C9421040C9421040C9421045C
:100090000C94E8090C94CF0A0C9421040C942104CC
:1000A0000C9421040C9421040C9421040C9421043C
:1000B0000C9421040C9421040C9421040C9421042C
:1000C0000C9421040C9421040C9421040C94200A17
:1000D0000C940E0B0C9421040C94580A0C944D0BA8
:1000E0000C94210400002100240027002A002D0088
:1000F0003000330001010000040107010A01000083
:100100002200250028002B002E00310034000201BF
:100110000000050108010B0100002000230026005B
:1001200029002C002F00320000010000030106010D
:10013000090105050505070508080808020202026D
:100140000A0A080804040404010101010101010173
:100150000303030303030303040707070C0C0C0C3E
:100160000C0C0C0C02020202060606060606060627
:100170000B0B0B0B0B0B0B0B0102102020080810B4
:100180002040102040800201020108040201010207
:1001900004081020408080402010080402018004E0
:1001A000020180402010080402010804020101023B
:1001B0000408102040800102040810204080000044
:1001C000090A02080B0C0D070603040100000000D9
:1001D000000000000000000000000000000000001F
:1001E0000000000000000000000011100F000000DF
:1001F00000000000000000000000000000000000FF
:100200000000000000000000003E5B4F5B3E3E6BC4
:100210004F6B3E1C3E7C3E1C183C7E3C181C577DA0
:10022000571C1C5E7F5E1C00183C1800FFE7C3E7EC
:10023000FF0018241800FFE7DBE7FF30483A060EFE
:100240002629792926407F050507407F05253F5A45
:100250003CE73C5A7F3E1C1C08081C1C3E7F1422B5
:100260007F22145F5F005F5F06097F017F00668960
:10027000956A606060606094A2FFA29408047E04A6
:100280000810207E201008082A1C08081C2A0808CC
:100290001E101010100C1E0C1E0C30383E3830068C
:1002A0000E3E0E06000000000000005F0000000788
:1002B000000700147F147F14242A7F2A12231308B6
:1002C000646236495620500008070300001C224192
:1002D000000041221C002A1C7F1C2A08083E080836
:1002E00000807030000808080808000060600020E6
:1002F000100804023E5149453E00427F40007249C9
:100300004949462141494D331814127F102745456C
:1003100045393C4A49493141211109073649494982
:1003200036464949291E00001400000040340000F0
:100330000008142241141414141400412214080259
:10034000015909063E415D594E7C1211127C7F49CC
:100350004949363E414141227F4141413E7F494921
:1003600049417F090909013E414151737F0808084D
:100370007F00417F41002040413F017F081422411E
:100380007F404040407F021C027F7F0408107F3E78
:100390004141413E7F090909063E4151215E7F09E5
:1003A000192946264949493203017F01033F40404C
:1003B000403F1F2040201F3F4038403F6314081437
:1003C0006303047804036159494D43007F4141416F
:1003D0000204081020004141417F04020102044050
:1003E00040404040000307080020545478407F28D4
:1003F0004444383844444428384444287F385454CA
:10040000541800087E090218A4A49C787F080404EC
:100410007800447D40002040403D007F102844008B
:1004200000417F40007C047804787C08040478381C
:1004300044444438FC1824241818242418FC7C084C
:10044000040408485454542404043F44243C4040C9
:10045000207C1C2040201C3C4030403C442810287C
:10046000444C9090907C4464544C440008364100C5
:100470000000770000004136080002010204023C3F
:100480002623263C1EA1A161123A4040207A38540E
:100490005455592155557941215454784121555489
:1004A000784020545579400C1E52721239555555DA
:1004B00059395454545939555454580000457C41C5
:1004C0000002457D420001457C40F0292429F0F0DE
:1004D000282528F07C545545002054547C547C0A2F
:1004E000097F4932494949323248484832324A48FC
:1004F00048303A4141217A3A42402078009DA0A0FC
:100500007D39444444393D4040403D3C24FF24244F
:10051000487E4943662B2FFC2F2BFF0929F620C06C
:10052000887E090320545479410000447D413048BD
:10053000484A32384040227A007A0A0A727D0D1900
:10054000317D2629292F28262929292630484D4062
:1005500020380808080808080808382F10C8ACBA5E
:100560002F102834FA00007B000008142A142222DD
:10057000142A1408AA005500AAAA55AA55AA0000D0
:1005800000FF00101010FF00141414FF001010FFE3
:1005900000FF1010F010F0141414FC001414F700F5
:1005A000FF0000FF00FF1414F404FC141417101FC4
:1005B00010101F101F1414141F00101010F0000052
:1005C00000001F101010101F10101010F01000006D
:1005D00000FF101010101010101010FF100000007D
:1005E000FF140000FF00FF00001F10170000FC04B4
:1005F000F414141710171414F404F40000FF00F797
:1006000014141414141414F700F7141414171410F9
:10061000101F101F141414F4141010F010F0000028
:100620001F101F0000001F14000000FC140000F049
:1006300010F01010FF10FF141414FF141010101FEE
:1006400000000000F010FFFFFFFFFFF0F0F0F0F0FF
:10065000FFFFFF0000000000FFFF0F0F0F0F0F381C
:10066000444438447C2A2A3E147E02020606027E56
:10067000027E0263554941633844443C04407E2075
:100680001E2006027E020299A5E7A5991C2A492A86
:100690001C4C7201724C304A4D4D30304878483015
:1006A000BC625A463D3E494949007E0101017E2A0D
:1006B0002A2A2A2A44445F444440514A4440404440
:1006C0004A51400000FF0103E080FF000008086B72
:1006D0006B083612362436060F090F06000018186C
:1006E0000000001010003040FF0101001F01011E3A
:1006F00000191D1712003C3C3C3C00000000000F9C
:100700000180961180FFB103012C2DB203012C2D25
:10071000B306012C2D012C2DB40107C003A20284C5
:10072000C101C5C2020A00C3028A2AC4028AEEC5F8
:10073000010E20003601C83A0105022A0400020019
:10074000812B04000100A0022A040000007F2B047A
:100750000000009F04E010021C07123732292D29E7
:10076000252B3900010310E110031D07062E2C294B
:100770002D2E2E373F0000021013800A29806412AC
:100780000180321180FF3A81050AB1830006030A15
:10079000360108B6021502B40100C08202700AC117
:1007A0000105C2020102C5823C380AFC021115E0B3
:1007B0001009160920211B131917151E2B040502F9
:1007C0000EE1900B14081E221D181E1B1A242B0666
:1007D00006020F0A2A04000200812B040002008195
:1007E00013800A2980FF9104B70C11241FBECFEF9C
:1007F000D1E2DEBFCDBF00E00CBF12E0A0E0B2E06E
:10080000ECE6F1E300E00BBF02C007900D92A437C5
:10081000B107D9F717E0A4E7B2E001C01D92AB30F1
:10082000B107E1F717E0CAEED7E004C02297FE0156
:100830000E94B018C63ED107C9F70E9414070C9455
:1008400043180C94000080915C0490915D04009723
:1008500099F580912202909123028739910534F015
:100860008AE290E0909323028093220280912202F8
:10087000909123028A9734F486E990E090932302C2
:100880008093220280912002909121020A9734F4F1
:1008900086E790E0909321028093200280912002CD
:1008A0009091210287379105DCF18AE090E09093E6
:1008B0002102809320020895019791F580912A02E8
:1008C00090912B028739910534F08AE290E0909361
:1008D0002B0280932A0280912A0290912B028A9700
:1008E00034F486E990E090932B0280932A02809161
:1008F0002802909129020A9734F486E790E09093B9
:10090000290280932802809128029091290287373A
:10091000910534F08AE090E09093290280932802B8
:1009200008950F931F9304E712E0C80166E047E0C3
:1009300028E00E94E41780EA92E06DE049E02CE0B4
:100940000E94E417C8016FEF4FEF20E00E948A1663
:1009500090936504809364041F910F91089583E040
:1009600060E00E949A0883E061E00E944D0980E007
:100970000E94550790935F0480935E0481E00E947B
:100980005507909361048093600408950F931F931B
:10099000CF93DF9384E792E062E00E94B61780EA8B
:1009A00092E062E00E94B61780EA92E060E070E0B8
:1009B0000E94F71584E792E060E070E00E94F7156E
:1009C000C4E2D0E084E792E064E070E0AE0128E7A2
:1009D00030E00FEF1FEF0E94A51580EA92E064E07F
:1009E00070E0AE0128E730E000EE17E00E94A515A8
:1009F0002C96C83AD10531F7C4E0D0E084E792E004
:100A0000BE0144E250E028E730E00FEF1FEF0E9404
:100A1000531580EA92E0BE0144E250E028E730E05E
:100A200000EE17E00E9453152C96C838D10531F717
:100A300060912C0270912D0240912E0250912F0254
:100A400080EA92E025E030E00E943C1166E970E027
:100A500080E090E00E94DF07DF91CF911F910F911E
:100A600008950E94C6040E94AF0480E090E0FC015B
:100A7000E453FD4F11821082FC01EC56FC4F1182B1
:100A8000108246968C3D910591F70895EF92FF9262
:100A90000F931F938FE896E060E072E00E94FA0ED9
:100AA0002091240230912502E0902602F090270246
:100AB000C7014E976CE070E00E9479188B01C90164
:100AC00002976CE070E00E94791841E050E0CB01A1
:100AD000FB0173E0EE0FFF1F7A95E1F7880F991F76
:100AE000E80FF91FE00FF11FE41BF50BEE0FFF1FDE
:100AF000EC56FC4F5183408330932D0220932C02FF
:100B0000F0922F02E0922E020091300210913102F9
:100B100080EA92E0B901A70125E030E00E942B0FA6
:100B20001F910F91FF90EF900895EF92FF920F9316
:100B30001F93609124027091250280912002909170
:100B400021026817790761F420912602309127026B
:100B500080912202909123022817390709F462C07C
:100B6000409126025091270284E792E025E030E090
:100B700000E010E00E943C11609124027091250277
:100B800066507040409126025091270246505040D6
:100B900084E792E02CE030E00CE010E0EE24FF244B
:100BA0000E941C12609124027091250266507040D0
:100BB00040912602509127024650504084E792E02F
:100BC0002CE030E00FEF1FEF0E94531560912402DC
:100BD0007091250266507040409126025091270284
:100BE0004650504084E792E02CE030E00E94A5158A
:100BF000609120027091210270932502609324027B
:100C000040912202509123025093270240932602E2
:100C1000009130021091310284E792E025E030E04B
:100C20000E943C1180915C0490915D04019709F051
:100C30007BC08FE896E063E172E00E94FA0E60915B
:100C40002C0270912D028091280290912902681740
:100C5000790761F420912E0230912F0280912A02AF
:100C600090912B022817390709F45EC040912E029B
:100C700050912F0280EA92E025E030E000E010E0A1
:100C80000E943C1160912C0270912D0266507040C0
:100C900040912E0250912F024650504080EA92E03F
:100CA0002CE030E00CE010E0EE24FF240E941C1247
:100CB00060912C0270912D026650704040912E027E
:100CC00050912F024650504080EA92E02CE030E0F4
:100CD00000EE17E00E94531560912C0270912D02D6
:100CE0006650704040912E0250912F024650504065
:100CF00080EA92E02CE030E00E94A5156091280285
:100D00007091290270932D0260932C0240912A0267
:100D100050912B0250932F0240932E0280EA92E0D2
:100D200025E030E00E943C111F910F91FF90EF9061
:100D30000895CF93DF9380E00E945507EC0181E096
:100D40000E94550720915C0430915D042115310506
:100D500071F522E0CC3BD20734F0809122029091D1
:100D600023020C9608C0CD52D14054F48091220247
:100D7000909123020C97909323028093220247C004
:100D800021E08D32920734F480912002909121026B
:100D90000C9708C08C5B9240D4F180912002909116
:100DA00021020C96909321028093200230C02130C2
:100DB000310569F522E0CC3BD20734F080912A025C
:100DC00090912B020C9608C0CD52D14054F48091E2
:100DD0002A0290912B020C9790932B0280932A0267
:100DE00016C021E08D32920734F480912802909150
:100DF00029020C9708C08C5B92404CF0809128022D
:100E0000909129020C9690932902809328020E94C7
:100E100023040E9495056AEF70E080E090E00E9454
:100E2000DF07DF91CF910895CF93DF930E943808B9
:100E30008FE896E040E855E260E070E00E948C0B9D
:100E40000E9431050E94D107C1E0D0E00E949906BE
:100E500083E00E9480099093630480936204892B4D
:100E6000A9F70E94460580915C0490915D0400976B
:100E700029F4D0935D04C0935C0406C0019721F46B
:100E800010925D0410925C048FE896E067E172E0D6
:100E90000E94F70E60915C0470915D048FE896E00B
:100EA0004AE050E00E94D80ED1CF382F863308F0A8
:100EB000365320917B00832F86958695869590E00A
:100EC0008170907043E0880F991F4A95E1F7277F62
:100ED000282B20937B003770809132028295880FF7
:100EE000880F807C832B80937C0080917A008064C3
:100EF00080937A0080917A0086FDFCCF2091780063
:100F000040917900942F80E030E0282B392BC901E3
:100F100008951F920F920FB60F9211242F933F93B3
:100F20008F939F93AF93BF9380916A0490916B04CA
:100F3000A0916C04B0916D0430916E040196A11DD6
:100F4000B11D232F2D5F2D3720F02D570196A11DA8
:100F5000B11D20936E0480936A0490936B04A09358
:100F60006C04B0936D048091660490916704A09125
:100F70006804B09169040196A11DB11D80936604B7
:100F800090936704A0936804B0936904BF91AF91F4
:100F90009F918F913F912F910F900FBE0F901F90B7
:100FA00018958FB7F89420916A0430916B044091A2
:100FB0006C0450916D048FBFB901CA0108959B0163
:100FC000AC017FB7F8948091660490916704A0917A
:100FD0006804B091690466B5A89B05C06F3F19F01D
:100FE0000196A11DB11D7FBFBA2FA92F982F882769
:100FF000860F911DA11DB11D62E0880F991FAA1FC8
:10100000BB1F6A95D1F7BC012DC0FFB7F894809142
:10101000660490916704A0916804B0916904E6B5F4
:10102000A89B05C0EF3F19F00196A11DB11DFFBFA0
:10103000BA2FA92F982F88278E0F911DA11DB11DA2
:10104000E2E0880F991FAA1FBB1FEA95D1F7861B04
:10105000970B885E9340C8F221503040404050408A
:1010600068517C4F211531054105510571F60895F0
:10107000789484B5826084BD84B5816084BD85B573
:10108000826085BD85B5816085BDEEE6F0E080813A
:1010900081608083E1E8F0E010828081826080835B
:1010A000808181608083E0E8F0E0808181608083DE
:1010B000E1EBF0E0808184608083E0EBF0E0808110
:1010C00081608083E1E9F0E08081826080838081BB
:1010D00081608083E0E9F0E0808181608083E1EAE3
:1010E000F0E0808182608083808181608083E0EA9B
:1010F000F0E0808181608083E1E2F1E080818260C4
:101100008083808181608083E0E2F1E08081816082
:101110008083EAE7F0E08081846080838081826060
:101120008083808181608083808180688083109249
:10113000C1000895CF93DF93482F50E0CA0188582B
:101140009E4FFC0134914E5C5E4FFA0184918823DE
:1011500069F190E0880F991FFC01EC51FF4FA591B8
:10116000B491FC01E250FF4FC591D491662351F434
:101170002FB7F8948C91932F909589238C93888125
:1011800089230BC0623061F42FB7F8948C91932FB0
:10119000909589238C938881832B88832FBF06C0E9
:1011A0009FB7F8948C91832B8C939FBFDF91CF9145
:1011B0000895893009F449C08A30A0F4843051F18F
:1011C000853040F4823079F1833000F5813009F0C8
:1011D00063C026C0873079F1883098F5863009F0F1
:1011E0005BC025C08D3009F442C08E3028F48B30AE
:1011F000B1F18C30C0F52DC0803109F442C081318D
:1012000009F445C08F3009F047C037C08091800095
:101210008F7703C0809180008F7D80938000089538
:1012200084B58F7702C084B58F7D84BD0895809189
:10123000B0008F7703C08091B0008F7D8093B000A5
:101240000895809190008F7707C0809190008F7DE6
:1012500003C080919000877F8093900008958091D3
:10126000A0008F7707C08091A0008F7D03C0809180
:10127000A000877F8093A0000895809120018F7740
:1012800003C0809120018F7D80932001089580917B
:101290002001877F809320010895FF920F931F9371
:1012A000F62E482F50E0CA0182549E4FFC01249133
:1012B000CA0188589E4FFC0114914E5C5E4FFA01A2
:1012C00004910023C9F0222319F0822F0E94D9082B
:1012D000E02FF0E0EE0FFF1FE250FF4FA591B49119
:1012E0009FB7F894FF2021F48C911095812302C0C0
:1012F0008C91812B8C939FBF1F910F91FF9008952C
:101300000F931F93482F50E0CA0182549E4FFC0157
:101310002491CA0188589E4FFC0104914E5C5E4F97
:10132000FA011491112319F420E030E015C02223B2
:1013300019F0822F0E94D908812F90E0880F991F01
:10134000885E9E4FFC01A591B4918C9120E030E025
:10135000802311F021E030E0C9011F910F91089521
:101360001F920F920FB60F920BB60F9211242F936C
:101370003F934F938F939F93EF93FF934091C600BA
:101380002091AF043091B0042F5F3F4F2F73307026
:101390008091B1049091B2042817390759F0E09177
:1013A000AF04F091B004E159FB4F40833093B00497
:1013B0002093AF04FF91EF919F918F914F913F91B7
:1013C0002F910F900BBE0F900FBE0F901F9018958E
:1013D0001F920F920FB60F920BB60F9211242F93FC
:1013E0003F934F938F939F93EF93FF934091CE0042
:1013F00020913705309138052F5F3F4F2F733070A4
:101400008091390590913A052817390759F0E091F4
:101410003705F0913805E950FB4F4083309338058C
:1014200020933705FF91EF919F918F914F913F91BD
:101430002F910F900BBE0F900FBE0F901F9018951D
:101440001F920F920FB60F920BB60F9211242F938B
:101450003F934F938F939F93EF93FF934091D600C9
:101460002091BF053091C0052F5F3F4F2F73307023
:101470008091C1059091C2052817390759F0E09174
:10148000BF05F091C005E158FA4F40833093C00585
:101490002093BF05FF91EF919F918F914F913F91C5
:1014A0002F910F900BBE0F900FBE0F901F901895AD
:1014B0001F920F920FB60F920BB60F9211242F931B
:1014C0003F934F938F939F93EF93FF9340913601F8
:1014D00020914706309148062F5F3F4F2F733070A1
:1014E0008091490690914A062817390759F0E091F2
:1014F0004706F0914806E95FF94F4083309348066C
:1015000020934706FF91EF919F918F914F913F91CB
:101510002F910F900BBE0F900FBE0F901F9018953C
:101520001F920F920FB60F920BB60F9211242F93AA
:101530003F938F939F93EF93FF932091F304309108
:10154000F4048091F5049091F6042817390731F4DA
:101550008091C1008F7D8093C10014C0E091F5049B
:10156000F091F604ED54FB4F20818091F5049091A9
:10157000F60401968F7390709093F6048093F504AF
:101580002093C600FF91EF919F918F913F912F91F2
:101590000F900BBE0F900FBE0F901F9018951F92CB
:1015A0000F920FB60F920BB60F9211242F933F9309
:1015B0008F939F93EF93FF9320917B0530917C0550
:1015C00080917D0590917E052817390731F480912F
:1015D000C9008F7D8093C90014C0E0917D05F09112
:1015E0007E05E55CFA4F208180917D0590917E0516
:1015F00001968F73907090937E0580937D05209364
:10160000CE00FF91EF919F918F913F912F910F907D
:101610000BBE0F900FBE0F901F9018951F920F9248
:101620000FB60F920BB60F9211242F933F938F9307
:101630009F93EF93FF9320910306309104068091CE
:101640000506909106062817390731F48091D100DC
:101650008F7D8093D10014C0E0910506F0910606BD
:10166000ED53FA4F20818091050690910606019670
:101670008F73907090930606809305062093D60092
:10168000FF91EF919F918F913F912F910F900BBE02
:101690000F900FBE0F901F9018951F920F920FB6CC
:1016A0000F920BB60F9211242F933F938F939F931A
:1016B000EF93FF9320918B0630918C0680918D06DD
:1016C00090918E062817390731F4809131018F7D72
:1016D0008093310114C0E0918D06F0918E06E55B98
:1016E000F94F208180918D0690918E0601968F731F
:1016F000907090938E0680938D0620933601FF9113
:10170000EF919F918F913F912F910F900BBE0F9072
:101710000FBE0F901F901895AF92BF92DF92EF927D
:10172000FF920F931F93CF93DF93EC017A018B010C
:10173000DD24403081EE580780E0680780E07807BC
:1017400011F0DD24D39491E0A92EB12CEC89FD8910
:10175000DD2069F0C5010E8C02C0880F991F0A9424
:10176000E2F7808360E079E08DE390E005C01082CD
:1017700060E874E88EE190E0A80197010E948C185F
:101780002150304040405040569547953795279519
:1017900080E12030380720F0DD2011F0DD24D6CFA5
:1017A000E889F9893083EA89FB892083EE89FF89FA
:1017B000408121E030E0C9010A8C02C0880F991FE6
:1017C0000A94E2F7482B4083EE89FF894081C901E2
:1017D0000B8C02C0880F991F0A94E2F7482B4083B4
:1017E000EE89FF894081C9010C8C02C0880F991FC6
:1017F0000A94E2F7482B4083EE89FF8980810D8CA3
:1018000002C0220F331F0A94E2F720952823208379
:10181000DF91CF911F910F91FF90EF90DF90BF90DC
:10182000AF900895DC011C96ED91FC911D97E05C52
:10183000FF4F2191319180819181281B390B2F73AA
:101840003070C9010895DC011C96ED91FC911D9743
:10185000E05CFF4F20813181E054F040DF01AE5B5E
:10186000BF4F8D919C9111972817390719F42FEFCD
:101870003FEF07C08D919C91E80FF91F8081282FC1
:1018800030E0C9010895DC011C96ED91FC911D9793
:10189000E05CFF4F20813181E054F040DF01AE5B1E
:1018A000BF4F8D919C9111972817390719F42FEF8D
:1018B0003FEF10C08D919C911197E80FF91F208187
:1018C0008D919C91119701968F73907011969C93B6
:1018D0008E9330E0C9010895FC0186859785DC016F
:1018E000A05CBF4FFC01EE5BFF4F2D913C91119727
:1018F0008081918128173907C1F70895CF93DF932D
:10190000EC01EE85FF85E05CFF4F20813181E054E2
:10191000F0402F5F3F4F2F733070DF01AE5BBF4F42
:101920008D919C91119728173907D1F3E05CFF4FF7
:1019300080819181E054F040E80FF91F6083EE85CB
:10194000FF85E05CFF4F31832083EE89FF89208192
:1019500081E090E00D8C02C0880F991F0A94E2F795
:10196000282B208381E090E0DF91CF9108951F9391
:10197000109292061092910628EE33E040E050E07B
:1019800020939306309394064093950650939606C1
:1019900067E372E07093900660938F068FE694E0A1
:1019A00090939C0680939B0683EB94E090939E0615
:1019B00080939D0685EC90E09093A00680939F060F
:1019C00084EC90E09093A2068093A10680EC90E0D6
:1019D0009093A4068093A30681EC90E09093A606D2
:1019E0008093A50686EC90E09093A8068093A706C6
:1019F00014E01093A906B3E0B093AA06A7E0A09361
:101A0000AB06F5E0F093AC06E1E0E093AD06109292
:101A1000B1061092B0062093B2063093B3064093FD
:101A2000B4065093B5067093AF066093AE0687EF89
:101A300094E09093BB068093BA068BE395E0909375
:101A4000BD068093BC068DEC90E09093BF0680931A
:101A5000BE068CEC90E09093C1068093C00688ECA3
:101A600090E09093C3068093C20689EC90E0909337
:101A7000C5068093C4068EEC90E09093C7068093D1
:101A8000C6061093C806B093C906A093CA06F09381
:101A9000CB06E093CC061092D0061092CF0620938E
:101AA000D1063093D2064093D3065093D406709358
:101AB000CE066093CD068FE795E09093DA0680938B
:101AC000D90683EC95E09093DC068093DB0685EDE8
:101AD00090E09093DE068093DD0684ED90E0909395
:101AE000E0068093DF0680ED90E09093E20680931D
:101AF000E10681ED90E09093E4068093E30686EDA5
:101B000090E09093E6068093E5061093E706B09385
:101B1000E806A093E906F093EA06E093EB0610923C
:101B2000EF061092EE062093F0063093F1064093F4
:101B3000F2065093F3067093ED066093EC0687E08F
:101B400096E09093F9068093F8068BE496E09093E4
:101B5000FB068093FA0685E391E09093FD0680935F
:101B6000FC0684E391E09093FF068093FE0680E3F9
:101B700091E0909301078093000781E391E09093B7
:101B800003078093020786E391E090930507809313
:101B9000040710930607B0930707A0930807F09374
:101BA0000907E0930A071F9108950895CF92DF92E5
:101BB000EF92FF920F931F93CF93DF937C016B0102
:101BC0008A01C0E0D0E00FC0D6016D916D01D70150
:101BD000ED91FC910190F081E02DC7011995C80F9E
:101BE000D91F015010400115110571F7CE01DF9189
:101BF000CF911F910F91FF90EF90DF90CF900895BC
:101C0000EF92FF920F931F938C01DC01ED91FC91F9
:101C10000190F081E02D6DE019957C01D801ED91E6
:101C2000FC910190F081E02DC8016AE019959C01BA
:101C30002E0D3F1DC9011F910F91FF90EF90089548
:101C4000CF93DF93DB010D900020E9F71197A61BDE
:101C5000B70BEC01E881F9810280F381E02DAD0141
:101C60001995DF91CF9108954F925F927F928F9255
:101C70009F92AF92BF92CF92DF92EF92FF920F931B
:101C80001F93DF93CF93CDB7DEB7A1970FB6F8942C
:101C9000DEBF0FBECDBF2C01742ECB01223008F465
:101CA0002AE019A231E2C32ED12CCC0EDD1E822EE9
:101CB0009924AA24BB24672D752FA50194010E94A5
:101CC0008C1879018A01C801B701A50194010E940D
:101CD0004618472D461B0894C108D1084A3014F411
:101CE000405D01C0495CF6014083E114F104010547
:101CF000110521F07E2C5F2DC801DDCFC201B60198
:101D00000E94200EA1960FB6F894DEBF0FBECDBF85
:101D1000CF91DF911F910F91FF90EF90DF90CF90C7
:101D2000BF90AF909F908F907F905F904F9008955D
:101D3000CF92DF92EF92FF920F931F93CF93DF9397
:101D4000EC016A017B012115310541F4E881F9813B
:101D50000190F081E02D642F19951FC02A303105C4
:101D6000D1F477FF17C0E881F9810190F081E02D6F
:101D70006DE219958C0144275527BA014C195D096C
:101D80006E097F09CE012AE00E94340E9801280FC7
:101D9000391F04C02AE00E94340E9C01C901DF9162
:101DA000CF911F910F91FF90EF90DF90CF9008950A
:101DB000CF92DF92EF92FF920F931F936C017B0102
:101DC0009A010027F7FC0095102FB801A7010E9487
:101DD000980E8C01C6010E94000E080F191FC80141
:101DE0001F910F91FF90EF90DF90CF9008950E9488
:101DF000200E0895EF92FF920F931F937C010E9493
:101E0000200E8C01C7010E94000E080F191FC80187
:101E10001F910F91FF90EF900895FC0113821282A1
:101E200087E492E09183808375836483578346833C
:101E30007187608753874287158A158614861786AF
:101E4000168621E0248B8FEF9FEF938B828B918BF3
:101E5000808B268B08952F923F924F925F926F92C4
:101E60007F928F929F92AF92BF92CF92DF92EF922A
:101E7000FF920F931F93DF93CF93CDB7DEB72897D1
:101E80000FB6F894DEBF0FBECDBF98878F831B01BE
:101E90002A017901580121E030E02E193F093E83E3
:101EA0002D83C701880F991FAA27BB27A81BB90B31
:101EB000BA83A983AF81B885ED91FC911197A701F1
:101EC000440D551D0480F581E02DCD019801199533
:101ED000AF81B885ED91FC911197A2014E195F0970
:101EE0000480F581E02DCD01B10198011995AF81F4
:101EF000B885ED91FC911197B701620D731D0480B7
:101F0000F581E02DCD01A20198011995AF81B88529
:101F1000ED91FC911197B1016E197F090480F58153
:101F2000E02DCD01A201980119953701E1E0F0E023
:101F3000FC83EB83882499249EC02D813E8137FD4C
:101F40000CC008946108710889819A8102969A836D
:101F50008983280F391F3E832D830894811C911C8F
:101F6000AB81BC811296BC83AB83ED81FE81EA0F0D
:101F7000FB1FFE83ED836401C20CD31C8301040D9F
:101F8000151DAF81B885ED91FC9111970480F58105
:101F9000E02DCD01B601A801950119957101E81850
:101FA000F908AF81B885ED91FC9111970480F58116
:101FB000E02DCD01B701A8019501199582010619FF
:101FC0001709AF81B885ED91FC9111970480F581D7
:101FD000E02DCD01B601A80195011995AF81B88515
:101FE000ED91FC9111970480F581E02DCD01B701B1
:101FF000A801950119956301C20CD31C8401040D3D
:10200000151DAF81B885ED91FC9111970480F58184
:10201000E02DCD01B601A801950119957101E618D1
:10202000F708AF81B885ED91FC9111970480F58197
:10203000E02DCD01B701A80195011995820108197C
:102040001909AF81B885ED91FC9111970480F58154
:10205000E02DCD01B601A80195011995AF81B88594
:10206000ED91FC9111970480F581E02DCD01B70130
:10207000A80195011995861497040CF45ECF289653
:102080000FB6F894DEBF0FBECDBFCF91DF911F9189
:102090000F91FF90EF90DF90CF90BF90AF909F9007
:1020A0008F907F906F905F904F903F902F9008950A
:1020B0002F923F924F925F926F927F928F929F9258
:1020C000AF92BF92CF92DF92EF92FF920F931F9346
:1020D000DF93CF93CDB7DEB72E970FB6F894DEBF60
:1020E0000FBECDBF9E878D871B015E834D83A701E9
:1020F000260171E0C72ED12CC21AD30AC901880F5C
:10210000991F66277727681B790B7A8369836D800F
:102110007E8008946108710883E0882E912C8E0CD3
:102120009F1C790181E090E09C838B83AA24BB24CF
:1021300010E0D801A170B070B887AF83FA01319672
:10214000FA87E987B801627070707C876B8777C007
:10215000D7FC0AC00894E108F10889819A810296A7
:102160009A838983C80ED91E0894A11CB11CAB8127
:10217000BC811296BC83AB83EF81F885EF2B41F1D4
:10218000AD85BE85ED91FC911197B501620D731D72
:102190004D815E814E195F099701220F331F89859A
:1021A0009A85280F391F0084F185E02DCD01820129
:1021B0001995AD85BE85ED91FC911197B701620D22
:1021C000731D0084F185E02DCD01A30194011995C3
:1021D000EB85FC85EF2B41F1AD85BE85ED91FC9142
:1021E0001197B1016A197B094D815E814E195F0912
:1021F0009701220F331F89859A85280F391F008484
:10220000F185E02DCD0182011995AD85BE85ED9159
:10221000FC911197B1016E197F090084F185E02DC1
:10222000CD01A30194011995EB81FC81CE0EDF1E37
:1022300008946108710862E070E0860E971EAE1483
:10224000BF040CF485CF2E960FB6F894DEBF0FBEF8
:10225000CDBFCF91DF911F910F91FF90EF90DF9055
:10226000CF90BF90AF909F908F907F906F905F9036
:102270004F903F902F9008956F927F928F929F92F0
:10228000AF92BF92CF92DF92EF92FF920F931F9384
:102290007C014B013A0159016801DC01ED91FC918F
:1022A000421B530B220F331F2F5F3F4F0084F185DA
:1022B000E02D1995C701B401A301950103E0EE24B7
:1022C000FF240E9458101F910F91FF90EF90DF9014
:1022D000CF90BF90AF909F908F907F906F90089518
:1022E0002F923F924F925F926F927F928F929F9226
:1022F000AF92BF92CF92DF92EF92FF920F931F9314
:10230000DF93CF9300D00F92CDB7DEB73C017C8333
:102310006B836A015901FA82E982222433249801ED
:10232000241B350B37FF03C0309521953F4FC50166
:102330004B815C81841B950B97FF03C09095819521
:102340009F4F821793075CF481E0282E312CC60141
:10235000CB80DC809C838B83C80185015C018B81F1
:102360009C81A816B90644F4C501AB80BC809C834F
:102370008B83C80186016C012501AB81BC814A1A9F
:102380005B0A7801EC18FD08F7FE04C0F094E194B4
:10239000F108F394C016D10624F088248A94982C6E
:1023A00003C0B1E08B2E912CC20162E070E00E946C
:1023B00079188B0125C0D301ED91FC9121143104D2
:1023C00041F00480F581E02DC301B6014B815C81B1
:1023D00007C00480F581E02DC3016B817C81A601DB
:1023E00029813A8119950E191F0917FF04C0C80CDD
:1023F000D91C040D151DEB81FC813196FC83EB8308
:102400004B815C81A416B506B4F60F900F900F9027
:102410000F90CF91DF911F910F91FF90EF90DF9080
:10242000CF90BF90AF909F908F907F906F905F9074
:102430004F903F902F9008954F925F926F927F92AE
:102440008F929F92AF92BF92CF92DF92EF92FF92C4
:102450000F931F936C015B014A0139012801DC01D4
:10246000ED91FC910284F385E02D87011995D60149
:10247000ED91FC91A40141505040440D551D028442
:10248000F385E02DC601B50193011995D601ED91B3
:10249000FC910084F185E02DC601B501A4019201F3
:1024A0001995D601ED91FC910894A108B108A60CEC
:1024B000B71C0084F185E02DC601B501A40192018D
:1024C00019951F910F91FF90EF90DF90CF90BF90E3
:1024D000AF909F908F907F906F905F904F900895F6
:1024E000CF92DF92EF92FF920F931F93DC016B016B
:1024F0007801ED91FC918A0101501040020F131FE9
:102500000680F781E02D960119951F910F91FF909C
:10251000EF90DF90CF900895CF92DF92EF92FF92ED
:102520000F931F93DC016A01C9017801ED91FC91C1
:1025300011979B0121503040280F391F0680F781E9
:10254000E02DCD01860119951F910F91FF90EF901D
:10255000DF90CF9008956F927F928F929F92AF926B
:10256000BF92CF92DF92EF92FF920F931F93CF9380
:10257000DF935C013A0169014801EB01C60ED71EE9
:102580000DC0D501ED91FC910084F185E02DC501D0
:10259000BE01A3019401870119952196CC15DD0593
:1025A00084F3DF91CF911F910F91FF90EF90DF9017
:1025B000CF90BF90AF909F908F907F906F90089535
:1025C000EF92FF920F931F93FC017B01A081B181D9
:1025D00020853185028513851E960D90BC91A02D16
:1025E00060E070E040E050E0FD0119951F910F910F
:1025F000FF90EF9008952F923F924F925F926F92CB
:102600007F928F929F92AF92BF92CF92DF92EF9282
:10261000FF920F931F93DF93CF93CDB7DEB72F9722
:102620000FB6F894DEBF0FBECDBF5C015E834D8355
:1026300018870F83FA86E986CB86DC0118968D9180
:102640009C911997681779070CF0A4C01A968D9180
:102650009C911B97481759070CF09CC0EC2DF0E09B
:10266000FF87EE87CF01880F991F8E0F9F1F880F5E
:10267000991F860F971F181619060CF08BC0CF01F3
:10268000F3E0880F991FFA95E1F7840F951F18164C
:1026900019060CF07FC085E0289FA00111245A8301
:1026A00049832B011B011C825C81553011F480E0B1
:1026B00005C0E981FA81EC5FFD4F84912C863D864F
:1026C0006D807E8043011B82C82EDD2480FF1CC0EC
:1026D000D501ED91FC91BB85B13049F40480F581C1
:1026E000E02DC501B201A3012F81388522C00684E7
:1026F000F785E02DC5016C857D85A4012E853F857C
:102700008901EF80F88423C0E985FA852F81388517
:10271000E217F307E9F0D501ED91FC91BB85B130EB
:1027200051F40480F581E02DC501B201A301298592
:102730003A8519950DC00684F785E02DC5016C8595
:102740007D85A4012E853F858901E984FA84199548
:10275000EB81EF5FEB832E853F85820E931E0894FD
:10276000611C711CE83021F0D594C7948C2DACCF3E
:102770003C813F5F3C834E855F85240E351E089467
:10278000411C511C89819A8101969A838983363034
:1027900009F08ACF2F960FB6F894DEBF0FBECDBFDB
:1027A000CF91DF911F910F91FF90EF90DF90CF902D
:1027B000BF90AF909F908F907F906F905F904F9061
:1027C0003F902F900895CF92EF92FF920F931F9317
:1027D000CF93DF93EC01262F6A3061F42C8930E02F
:1027E00003E0220F331F0A95E1F78E859F85820F44
:1027F000931F37C06D30C9F16C857D854E855F852F
:1028000008891989EA88FB88CC880E94FB122C89E8
:1028100086E0289FB00111248C859D85680F791F63
:102820007D876C878E89882301F1422F50E08AEFE3
:102830009FEF9C01429FC001439F900D529F900DBE
:10284000112428853985820F931F861797076CF40A
:1028500013E0440F551F1A95E1F78E859F85840F6D
:10286000951F9F878E871D861C8681E090E0DF91F3
:10287000CF911F910F91FF90EF90CF900895089501
:10288000DC0158968C915897882329F06EBD0DB4C1
:1028900007FEFDCF089530E840E050E070E0832F60
:1028A00090E0862397235996ED91FC915A9796963E
:1028B0002C919697892B21F08081822B808304C0F4
:1028C00080812095282320835B96ED91FC915C9775
:1028D000808197969C919797892B80835B96ED9149
:1028E000FC915C97908197968C919797809589231E
:1028F000808336954F5F5F4F4830510581F60895CC
:102900000F931F938C01DC015F96ED91FC919097E2
:10291000908199968C9199978095892380835D9673
:10292000ED91FC915E97908198968C91809589238A
:102930008083C8010E944014D8015D96ED91FC91FE
:102940005E97808198969C91892B80831F910F912F
:1029500008950F931F938C01DC015F96ED91FC911C
:102960009097808199969C919997892B80835D9609
:10297000ED91FC915E97908198968C91809589233A
:102980008083C8010E944014D8015D96ED91FC91AE
:102990005E97808198969C91892B80831F910F91DF
:1029A0000895CF92DF92EF92FF920F931F937C01D5
:1029B000162FC42ED22E6AE20E948014C70160E056
:1029C0000E94A914F70162A5610FC7010E94A91412
:1029D000C70160E00E94A914F70162A56D0DC7014F
:1029E0000E94A914C7016BE20E948014C70160E035
:1029F0000E94A914F70163A56C0DC7010E94A914D8
:102A0000C70160E00E94A914F70163A5600FC70128
:102A10000E94A914C7016CE20E9480141F910F91BB
:102A2000FF90EF90DF90CF900895FF920F931F9348
:102A3000CF93DF93EC01F22E132F77FD2EC0888504
:102A40009985681779074CF557FD27C08A859B85BE
:102A50004817590714F5262F2F5F042F0F5FCE015B
:102A60000E94D114EF8DF8A1808199A5892B8083D4
:102A7000ED8DFE8D908188A5809589238083CE0180
:102A8000612F0E944014CE016F2D0E944014ED8DE5
:102A9000FE8D808198A5892B8083DF91CF911F9136
:102AA0000F91FF900895DF92EF92FF920F931F9383
:102AB000CF93DF93EC01FB017901D02E88859985B6
:102AC00068177907D4F52A853B8542175307ACF57B
:102AD000C701840F951F281739071CF47901E41AE0
:102AE000F50A042F01500E0DCE016E2F2E2F0E94DD
:102AF000D114EF8DF8A1808199A5892B8083ED8D6C
:102B0000FE8D908188A580958923808308C0CE01A1
:102B1000612F0E944014CE016D2D0E944014089434
:102B2000E108F1088FEFE8168FEFF80681F7ED8DD9
:102B3000FE8D808198A5892B8083DF91CF911F9195
:102B40000F91FF90EF90DF900895DF92EF92FF9248
:102B50000F931F93CF93DF93EC01FA017901D02EED
:102B60002885398562177307D4F58A859B854817B0
:102B70005907ACF5C701860F971F281739071CF4B2
:102B80007901E61AF70A262F21502E0DCE014E2F7D
:102B90000E2F0E94D114EF8DF8A1808199A5892B69
:102BA0008083ED8DFE8D908188A58095892380831B
:102BB00008C0CE01612F0E944014CE016D2D0E94ED
:102BC00040140894E108F1088FEFE8168FEFF8063B
:102BD00081F7ED8DFE8D808198A5892B8083DF9113
:102BE000CF911F910F91FF90EF90DF900895EF929A
:102BF000FF920F931F93FC017B01A081B18120857F
:102C00003185028513851E960D90BC91A02D60E044
:102C100070E040E050E0FD0119951F910F91FF9089
:102C2000EF900895AF92BF92CF92DF92EF92FF9212
:102C30000F931F93CF93DF936C015901E801DC01DF
:102C400018962D913C911997621773070CF057C095
:102C50001A96ED91FC911B974E175F070CF04FC031
:102C6000C501860F971F281739071CF45901A61AAA
:102C7000B70ACE01840F951FE817F9071CF4EF017E
:102C8000C41BD50B262F21502A0D042F01500C0FE9
:102C9000C6010E94D114D6015F96ED91FC919097E8
:102CA000808199969C919997892B80835D96ED916F
:102CB000FC915E97908198968C9180958923808372
:102CC0008E010EC0C6016F2D0E944014C6016E2DEC
:102CD0000E94401421971C161D06A4F301501040B9
:102CE0001016110614F4E501F6CFD6015D96ED91AC
:102CF000FC915E97808198969C91892B8083DF91CF
:102D0000CF911F910F91FF90EF90DF90CF90BF90E8
:102D1000AF90089550E04C7F507033E0440F551F42
:102D20003A95E1F730E093E0359527959A95E1F7EC
:102D3000422B532B70E0687F7070762F6627462BEE
:102D4000572BCA010895662311F460E201C061E2C5
:102D50000E9480140895AF92BF92CF92DF92EF92BB
:102D6000FF920F931F93CF93DF935C01FB01EB0165
:102D70002196D49031C08E010F5F1F4FFE016491E8
:102D8000C5010E94801478010894E11CF11CF8012F
:102D9000C4900C2D0F77E701102F08C0FE0121967B
:102DA000E491C5016E2F0E94A91411501123B1F7AF
:102DB000E701C00FD11DC7FE0EC0FE018491682F30
:102DC00070E06F3F710511F464EF71E0219680E0CF
:102DD00090E00E94DF07DA94DD2069F6DF91CF9161
:102DE0001F910F91FF90EF90DF90CF90BF90AF9029
:102DF00008950F931F93CF93DF93EC018B011BA6D4
:102E00001AA68AA161E00E949A0889A161E00E9445
:102E10009A08E9A14E2F50E0FA01EE5CFE4FE491D2
:102E2000F0E0EE0FFF1FE250FF4F859194919E8FCF
:102E30008D8FEAA12E2F30E0F901EE5CFE4FE49178
:102E4000F0E0EE0FFF1FE250FF4F8591949198A3A1
:102E50008F8F48585E4FFA01849188A728583E4FBB
:102E6000F901849189A7888D882361F00E94241834
:102E700080E00E94131881E00E94051880E00E9403
:102E80000E183DC08DA161E00E949A088CA161E0FE
:102E90000E949A08EDA14E2F50E0FA01EE5CFE4F21
:102EA000E491F0E0EE0FFF1FE250FF4FA591B491C7
:102EB000BC8FAB8FECA12E2F30E0F901EE5CFE4F02
:102EC000E491F0E0EE0FFF1FE250FF4F85919491E7
:102ED0009A8F898F48585E4FFA0194919FA3285882
:102EE0003E4FF90184918EA38C91909598239C93E9
:102EF000E98DFA8D90818EA1809589238083ED8D57
:102F0000FE8D908188A58095892380838BA188235D
:102F100009F161E00E949A088BA161E00E944D09CD
:102F200064EF71E080E090E00E94DF078BA160E039
:102F30000E944D0964EF71E080E090E00E94DF079D
:102F40008BA161E00E944D0964EF71E080E090E0A8
:102F50000E94DF070115110521F0CE01B8010E9482
:102F6000AB16DF91CF911F910F9108951F93CF93CF
:102F7000DF93EC01162F6FEF76E00E94F916112314
:102F800051F4CE016AE377E00E94AB1682E08AA793
:102F900081E08BA705C0CE0167E477E00E94AB1605
:102FA000CE0164E577E00E94AB16123041F4CE0109
:102FB00066E30E948014CE0160EC0E94A9141F8B6E
:102FC000DF91CF911F910895DF92EF92FF920F93BF
:102FD0001F938C01F62EE42ED22E60E870E040EABA
:102FE00050E00E940D0F8FE592E0F80191838083FD
:102FF000F1A2E2A2D3A281E0808F15A214A21F91B8
:103000000F91FF90EF90DF900895882319F48CB50D
:10301000806202C08CB58F7D8CBD08959CB5937F76
:10302000982B9CBD08952CB5382F33702C7F322BF4
:103030003CBD2DB590E095958795959587958170C8
:103040002E7F822B8DBD089584E361E00E949A0853
:1030500083E361E00E949A0885E361E00E949A0898
:1030600084E360E00E944D0983E360E00E944D0923
:1030700085E361E00E944D098CB580618CBD8CB503
:1030800080648CBD0895F8940C94B418629FD001AC
:10309000739FF001829FE00DF11D649FE00DF11D13
:1030A000929FF00D839FF00D749FF00D659FF00DC2
:1030B0009927729FB00DE11DF91F639FB00DE11DAF
:1030C000F91FBD01CF0111240895AA1BBB1B51E1BB
:1030D00007C0AA1FBB1FA617B70710F0A61BB70B88
:1030E000881F991F5A95A9F780959095BC01CD012D
:1030F000089597FB092E07260AD077FD04D0E5DF57
:1031000006D000201AF4709561957F4F0895F6F768
:10311000909581959F4F0895A1E21A2EAA1BBB1B83
:10312000FD010DC0AA1FBB1FEE1FFF1FA217B30793
:10313000E407F50720F0A21BB30BE40BF50B661FA9
:10314000771F881F991F1A9469F76095709580956D
:1031500090959B01AC01BD01CF010895EE0FFF1FBB
:0C3160000590F491E02D1994F894FFCF35
:10316C0043757272656E7420506F736974696F6EFB
:10317C003A2000696E210073637265656E3A200017
:10318C003A005A00FFFFFFFF3A005A003A005A007B
:10319C00E00701000000007E0CD60D120C430C233E
:1031AC000C6C0C00000000E313D60DD50D701170E3
:1031BC00128C121C12AB12E0123F1400000000E340
:1031CC0013D60D151570115315A5151C121216F7E3
:0431DC0015A3160021
:00000001FF
