:100000000C94F5030C9421040C9421040C94210409
:100010000C9421040C9421040C9421040C942104CC
:100020000C9421040C9421040C9421040C942104BC
:100030000C9421040C9421040C9421040C942104AC
:100040000C9421040C9421040C9421040C9421049C
:100050000C9421040C9421040C9421040C94C006EB
:100060000C9421040C94E7080C94C7090C94210407
:100070000C9421040C9421040C9421040C9421046C
:100080000C9421040C9421040C9421040C9421045C
:100090000C941F090C94060A0C9421040C9421045E
:1000A0000C9421040C9421040C9421040C9421043C
:1000B0000C9421040C9421040C9421040C9421042C
:1000C0000C9421040C9421040C9421040C945709E1
:1000D0000C94450A0C9421040C948F090C94840A06
:1000E0000C94210400002100240027002A002D0088
:1000F0003000330001010000040107010A01000083
:100100002200250028002B002E00310034000201BF
:100110000000050108010B0100002000230026005B
:1001200029002C002F00320000010000030106010D
:10013000090105050505070508080808020202026D
:100140000A0A080804040404010101010101010173
:100150000303030303030303040707070C0C0C0C3E
:100160000C0C0C0C02020202060606060606060627
:100170000B0B0B0B0B0B0B0B0102102020080810B4
:100180002040102040800201020108040201010207
:1001900004081020408080402010080402018004E0
:1001A000020180402010080402010804020101023B
:1001B0000408102040800102040810204080000044
:1001C000090A02080B0C0D070603040100000000D9
:1001D000000000000000000000000000000000001F
:1001E0000000000000000000000011100F000000DF
:1001F00000000000000000000000000000000000FF
:100200000000000000000000003E5B4F5B3E3E6BC4
:100210004F6B3E1C3E7C3E1C183C7E3C181C577DA0
:10022000571C1C5E7F5E1C00183C1800FFE7C3E7EC
:10023000FF0018241800FFE7DBE7FF30483A060EFE
:100240002629792926407F050507407F05253F5A45
:100250003CE73C5A7F3E1C1C08081C1C3E7F1422B5
:100260007F22145F5F005F5F06097F017F00668960
:10027000956A606060606094A2FFA29408047E04A6
:100280000810207E201008082A1C08081C2A0808CC
:100290001E101010100C1E0C1E0C30383E3830068C
:1002A0000E3E0E06000000000000005F0000000788
:1002B000000700147F147F14242A7F2A12231308B6
:1002C000646236495620500008070300001C224192
:1002D000000041221C002A1C7F1C2A08083E080836
:1002E00000807030000808080808000060600020E6
:1002F000100804023E5149453E00427F40007249C9
:100300004949462141494D331814127F102745456C
:1003100045393C4A49493141211109073649494982
:1003200036464949291E00001400000040340000F0
:100330000008142241141414141400412214080259
:10034000015909063E415D594E7C1211127C7F49CC
:100350004949363E414141227F4141413E7F494921
:1003600049417F090909013E414151737F0808084D
:100370007F00417F41002040413F017F081422411E
:100380007F404040407F021C027F7F0408107F3E78
:100390004141413E7F090909063E4151215E7F09E5
:1003A000192946264949493203017F01033F40404C
:1003B000403F1F2040201F3F4038403F6314081437
:1003C0006303047804036159494D43007F4141416F
:1003D0000204081020004141417F04020102044050
:1003E00040404040000307080020545478407F28D4
:1003F0004444383844444428384444287F385454CA
:10040000541800087E090218A4A49C787F080404EC
:100410007800447D40002040403D007F102844008B
:1004200000417F40007C047804787C08040478381C
:1004300044444438FC1824241818242418FC7C084C
:10044000040408485454542404043F44243C4040C9
:10045000207C1C2040201C3C4030403C442810287C
:10046000444C9090907C4464544C440008364100C5
:100470000000770000004136080002010204023C3F
:100480002623263C1EA1A161123A4040207A38540E
:100490005455592155557941215454784121555489
:1004A000784020545579400C1E52721239555555DA
:1004B00059395454545939555454580000457C41C5
:1004C0000002457D420001457C40F0292429F0F0DE
:1004D000282528F07C545545002054547C547C0A2F
:1004E000097F4932494949323248484832324A48FC
:1004F00048303A4141217A3A42402078009DA0A0FC
:100500007D39444444393D4040403D3C24FF24244F
:10051000487E4943662B2FFC2F2BFF0929F620C06C
:10052000887E090320545479410000447D413048BD
:10053000484A32384040227A007A0A0A727D0D1900
:10054000317D2629292F28262929292630484D4062
:1005500020380808080808080808382F10C8ACBA5E
:100560002F102834FA00007B000008142A142222DD
:10057000142A1408AA005500AAAA55AA55AA0000D0
:1005800000FF00101010FF00141414FF001010FFE3
:1005900000FF1010F010F0141414FC001414F700F5
:1005A000FF0000FF00FF1414F404FC141417101FC4
:1005B00010101F101F1414141F00101010F0000052
:1005C00000001F101010101F10101010F01000006D
:1005D00000FF101010101010101010FF100000007D
:1005E000FF140000FF00FF00001F10170000FC04B4
:1005F000F414141710171414F404F40000FF00F797
:1006000014141414141414F700F7141414171410F9
:10061000101F101F141414F4141010F010F0000028
:100620001F101F0000001F14000000FC140000F049
:1006300010F01010FF10FF141414FF141010101FEE
:1006400000000000F010FFFFFFFFFFF0F0F0F0F0FF
:10065000FFFFFF0000000000FFFF0F0F0F0F0F381C
:10066000444438447C2A2A3E147E02020606027E56
:10067000027E0263554941633844443C04407E2075
:100680001E2006027E020299A5E7A5991C2A492A86
:100690001C4C7201724C304A4D4D30304878483015
:1006A000BC625A463D3E494949007E0101017E2A0D
:1006B0002A2A2A2A44445F444440514A4440404440
:1006C0004A51400000FF0103E080FF000008086B72
:1006D0006B083612362436060F090F06000018186C
:1006E0000000001010003040FF0101001F01011E3A
:1006F00000191D1712003C3C3C3C00000000000F9C
:100700000180961180FFB103012C2DB203012C2D25
:10071000B306012C2D012C2DB40107C003A20284C5
:10072000C101C5C2020A00C3028A2AC4028AEEC5F8
:10073000010E20003601C83A0105022A0400020019
:10074000812B04000100A0022A040000007F2B047A
:100750000000009F04E010021C07123732292D29E7
:10076000252B3900010310E110031D07062E2C294B
:100770002D2E2E373F0000021013800A29806412AC
:100780000180321180FF3A81050AB1830006030A15
:10079000360108B6021502B40100C08202700AC117
:1007A0000105C2020102C5823C380AFC021115E0B3
:1007B0001009160920211B131917151E2B040502F9
:1007C0000EE1900B14081E221D181E1B1A242B0666
:1007D00006020F0A2A04000200812B040002008195
:1007E00013800A2980FF2304EE0B11241FBECFEFD4
:1007F000D1E2DEBFCDBF00E00CBF12E0A0E0B2E06E
:10080000E0EBFDE200E00BBF02C007900D92AC36BA
:10081000B107D9F717E0ACE6B2E001C01D92A130F4
:10082000B107E1F717E0CAEED7E004C02297FE0156
:100830000E94D216C63ED107C9F70E941D060C942D
:1008400084160C9400000F931F930CE612E0C8016D
:1008500066E047E028E00E94251688E992E06DE016
:1008600049E02CE00E942516C8016FEF4FEF20E011
:100870000E94CB1490935B0480935A041F910F91B4
:1008800008958091170260E00E94D10780911902BB
:1008900060E00E94D1078091130260E00E94D107BE
:1008A0008091150260E00E94D10780911B0260E0F8
:1008B0000E94D1078091170261E00E948408809114
:1008C000190261E00E9484088091130261E00E9495
:1008D00084088091150261E00E94840880911B02C7
:1008E00061E00E948408089583E060E00E94D107DF
:1008F00083E061E00E94840880E00E948C0690936F
:1009000057048093560481E00E948C06909359040A
:100910008093580408950F931F93CF93DF938CE631
:1009200092E062E00E94F71588E992E062E00E949E
:10093000F71588E992E060E070E00E9438148CE6D8
:1009400092E060E070E00E943814C4E2D0E08CE6EF
:1009500092E064E070E0AE0128E730E00FEF1FEFB7
:100960000E94E61388E992E064E070E0AE0128E7B7
:1009700030E000EE17E00E94E6132C96C83AD1054D
:1009800031F7C4E0D0E08CE692E0BE0144E250E0F2
:1009900028E730E00FEF1FEF0E94941388E992E000
:1009A000BE0144E250E028E730E000EE17E00E948C
:1009B00094132C96C838D10531F7609121027091BB
:1009C00022024091230250912402009129021091A9
:1009D0002A028CE692E025E030E00E947D0F66E975
:1009E00070E080E090E00E941607DF91CF911F91A8
:1009F0000F9108950E948B040E9474040E94410488
:100A000080E090E0FC01EC53FD4F11821082FC016C
:100A1000E457FC4F1182108246968C3D910591F768
:100A200008950F931F9360912502709126024091C3
:100A30002702509128020091290210912A0288E988
:100A400092E025E030E00E946C0D1F910F91089517
:100A5000EF92FF920F931F936091210270912202F7
:100A600080911D0290911E026817790761F4209110
:100A700023023091240280911F02909120022817B6
:100A8000390709F462C040912302509124028CE698
:100A900092E025E030E000E010E00E947D0F6091E0
:100AA00021027091220266507040409123025091C1
:100AB0002402465050408CE692E02CE030E00CE0FE
:100AC00010E0EE24FF240E945D10609121027091DD
:100AD00022026650704040912302509124024650F9
:100AE00050408CE692E02CE030E00FEF1FEF0E94C8
:100AF00094136091210270912202665070404091DF
:100B0000230250912402465050408CE692E02CE0A3
:100B100030E00E94E61360911D0270911E027093F6
:100B200022026093210240911F02509120025093B3
:100B30002402409323020091290210912A028CE69C
:100B400092E025E030E00E947D0F1F910F91FF9011
:100B5000EF900895CF93DF9380E00E948C06EC0124
:100B600081E00E948C0622E0CC3BD20734F08091D9
:100B70001F02909120020C9608C0CD52D14054F42F
:100B800080911F02909120020C97909320028093F5
:100B90001F0216C021E08D32920734F480911D02AD
:100BA00090911E020C9708C08C5B92404CF0809193
:100BB0001D0290911E020C9690931E0280931D02BE
:100BC00080911F02909120028739910534F08AE2CA
:100BD00090E09093200280931F0280911F029091D9
:100BE00020028A9734F486E990E090932002809363
:100BF0001F0280911D0290911E020A9734F486E72D
:100C000090E090931E0280931D0280911D029091AE
:100C10001E028737910534F08AE090E090931E021F
:100C200080931D020E9428056AEF70E080E090E04A
:100C30000E941607DF91CF910895EF92FF920F93D4
:100C40001F93CF93DF930E946F0785E896E040E8FB
:100C500055E260E070E00E94C30A0E94FA040E941C
:100C60000807C1E0D0E00E94AA0580911B020E9403
:100C7000B708892BC1F78091540490915504892BB2
:100C800051F4D0935504C093540405C010925504F8
:100C90001092540406C08091540490915504019719
:100CA000A9F385E896E060E072E00E944B0D0091A8
:100CB000210210912202E0902302F0902402C70149
:100CC0004E976CE070E00E949B169B01C801029752
:100CD0006CE070E00E949B16CB01FB0153E0EE0F2D
:100CE000FF1F5A95E1F7880F991FE80FF91FE20FD0
:100CF000F31FEC1BFD0BEE0FFF1FEC53FD4FD183D9
:100D0000C0831093260200932502F0922802E092FD
:100D100027020E941105A7CF382F863308F03653DB
:100D200020917B00832F86958695869590E0817033
:100D3000907043E0880F991F4A95E1F7277F282B91
:100D400020937B00377080912B028295880F880F4B
:100D5000807C832B80937C0080917A0080648093D8
:100D60007A0080917A0086FDFCCF20917800409136
:100D70007900942F80E030E0282B392BC9010895A9
:100D80001F920F920FB60F9211242F933F938F93C0
:100D90009F93AF93BF938091600490916104A09161
:100DA0006204B0916304309164040196A11DB11DE9
:100DB000232F2D5F2D3720F02D570196A11DB11D3A
:100DC000209364048093600490936104A093620470
:100DD000B093630480915C0490915D04A0915E04E3
:100DE000B0915F040196A11DB11D80935C049093A6
:100DF0005D04A0935E04B0935F04BF91AF919F9197
:100E00008F913F912F910F900FBE0F901F901895CB
:100E10008FB7F8942091600430916104409162048E
:100E2000509163048FBFB901CA0108959B01AC01C1
:100E30007FB7F89480915C0490915D04A0915E046A
:100E4000B0915F0466B5A89B05C06F3F19F001968D
:100E5000A11DB11D7FBFBA2FA92F982F8827860FFC
:100E6000911DA11DB11D62E0880F991FAA1FBB1F14
:100E70006A95D1F7BC012DC0FFB7F89480915C044E
:100E800090915D04A0915E04B0915F04E6B5A89BCB
:100E900005C0EF3F19F00196A11DB11DFFBFBA2F8C
:100EA000A92F982F88278E0F911DA11DB11DE2E05B
:100EB000880F991FAA1FBB1FEA95D1F7861B970BB6
:100EC000885E9340C8F22150304040405040685105
:100ED0007C4F211531054105510571F6089578942F
:100EE00084B5826084BD84B5816084BD85B582602F
:100EF00085BD85B5816085BDEEE6F0E080818160CD
:100F00008083E1E8F0E010828081826080838081CC
:100F100081608083E0E8F0E0808181608083E1EBA4
:100F2000F0E0808184608083E0EBF0E0808181608C
:100F30008083E1E9F0E0808182608083808181604C
:100F40008083E0E9F0E0808181608083E1EAF0E085
:100F5000808182608083808181608083E0EAF0E02C
:100F6000808181608083E1E2F1E080818260808322
:100F7000808181608083E0E2F1E080818160808314
:100F8000EAE7F0E0808184608083808182608083F2
:100F90008081816080838081806880831092C1001D
:100FA0000895CF93DF93482F50E0CA0188589E4F91
:100FB000FC0134914E5C5E4FFA018491882369F103
:100FC00090E0880F991FFC01EC51FF4FA591B4915F
:100FD000FC01E250FF4FC591D491662351F42FB725
:100FE000F8948C91932F909589238C9388818923F1
:100FF0000BC0623061F42FB7F8948C91932F9095C9
:1010000089238C938881832B88832FBF06C09FB749
:10101000F8948C91832B8C939FBFDF91CF9108958F
:10102000893009F449C08A30A0F4843051F1853008
:1010300040F4823079F1833000F5813009F063C0EB
:1010400026C0873079F1883098F5863009F05BC08A
:1010500025C08D3009F442C08E3028F48B30B1F1B8
:101060008C30C0F52DC0803109F442C0813109F4C3
:1010700045C08F3009F047C037C0809180008F771E
:1010800003C0809180008F7D80938000089584B597
:101090008F7702C084B58F7D84BD08958091B000A4
:1010A0008F7703C08091B0008F7D8093B00008954A
:1010B000809190008F7707C0809190008F7D03C052
:1010C00080919000877F8093900008958091A00088
:1010D0008F7707C08091A0008F7D03C08091A00012
:1010E000877F8093A0000895809120018F7703C0AF
:1010F000809120018F7D80932001089580912001AF
:10110000877F809320010895FF920F931F93F62EFF
:10111000482F50E0CA0182549E4FFC012491CA011D
:1011200088589E4FFC0114914E5C5E4FFA01049169
:101130000023C9F0222319F0822F0E941008E02F0B
:10114000F0E0EE0FFF1FE250FF4FA591B4919FB763
:10115000F894FF2021F48C911095812302C08C918A
:10116000812B8C939FBF1F910F91FF9008950F9338
:101170001F93482F50E0CA0182549E4FFC012491D6
:10118000CA0188589E4FFC0104914E5C5E4FFA01E3
:101190001491112319F420E030E015C0222319F036
:1011A000822F0E941008812F90E0880F991F885E7F
:1011B0009E4FFC01A591B4918C9120E030E08023FA
:1011C00011F021E030E0C9011F910F9108951F92A5
:1011D0000F920FB60F920BB60F9211242F933F93DD
:1011E0004F938F939F93EF93FF934091C60020916D
:1011F000A5043091A6042F5F3F4F2F73307080916C
:10120000A7049091A8042817390759F0E091A50484
:10121000F091A604EB59FB4F40833093A604209332
:10122000A504FF91EF919F918F914F913F912F9145
:101230000F900BBE0F900FBE0F901F9018951F922E
:101240000F920FB60F920BB60F9211242F933F936C
:101250004F938F939F93EF93FF934091CE002091F4
:101260002D0530912E052F5F3F4F2F7330708091E9
:101270002F05909130052817390759F0E0912D0579
:10128000F0912E05E351FB4F408330932E052093C0
:101290002D05FF91EF919F918F914F913F912F914C
:1012A0000F900BBE0F900FBE0F901F9018951F92BE
:1012B0000F920FB60F920BB60F9211242F933F93FC
:1012C0004F938F939F93EF93FF934091D60020917C
:1012D000B5053091B6052F5F3F4F2F733070809169
:1012E000B7059091B8052817390759F0E091B50571
:1012F000F091B605EB58FA4F40833093B605209332
:10130000B505FF91EF919F918F914F913F912F9153
:101310000F900BBE0F900FBE0F901F9018951F924D
:101320000F920FB60F920BB60F9211242F933F938B
:101330004F938F939F93EF93FF93409136012091AA
:101340003D0630913E062F5F3F4F2F7330708091E6
:101350003F06909140062817390759F0E0913D0665
:10136000F0913E06E350FA4F408330933E062093BF
:101370003D06FF91EF919F918F914F913F912F915A
:101380000F900BBE0F900FBE0F901F9018951F92DD
:101390000F920FB60F920BB60F9211242F933F931B
:1013A0008F939F93EF93FF932091E9043091EA0488
:1013B0008091EB049091EC042817390731F4809167
:1013C000C1008F7D8093C10014C0E091EB04F091C7
:1013D000EC04E755FB4F20818091EB049091EC04E5
:1013E00001968F7390709093EC048093EB0420939C
:1013F000C600FF91EF919F918F913F912F910F9098
:101400000BBE0F900FBE0F901F9018951F920F925A
:101410000FB60F920BB60F9211242F933F938F9319
:101420009F93EF93FF932091710530917205809106
:101430007305909174052817390731F48091C9001C
:101440008F7D8093C90014C0E0917305F0917405FD
:10145000EF5CFA4F2081809173059091740501969D
:101460008F73907090937405809373052093CE00D2
:10147000FF91EF919F918F913F912F910F900BBE14
:101480000F900FBE0F901F9018951F920F920FB6DE
:101490000F920BB60F9211242F933F938F939F932C
:1014A000EF93FF932091F9053091FA058091FB05A8
:1014B0009091FC052817390731F48091D1008F7D78
:1014C0008093D10014C0E091FB05F091FC05E75436
:1014D000FA4F20818091FB059091FC0501968F7356
:1014E00090709093FC058093FB052093D600FF91AC
:1014F000EF919F918F913F912F910F900BBE0F9085
:101500000FBE0F901F9018951F920F920FB60F925B
:101510000BB60F9211242F933F938F939F93EF93CA
:10152000FF932091810630918206809183069091ED
:1015300084062817390731F4809131018F7D80931B
:10154000310114C0E0918306F0918406EF5BF94FFE
:101550002081809183069091840601968F7390700C
:10156000909384068093830620933601FF91EF9138
:101570009F918F913F912F910F900BBE0F900FBEB7
:101580000F901F901895AF92BF92DF92EF92FF924B
:101590000F931F93CF93DF93EC017A018B01DD242E
:1015A000403081EE580780E0680780E0780711F04E
:1015B000DD24D39491E0A92EB12CEC89FD89DD20A6
:1015C00069F0C5010E8C02C0880F991F0A94E2F7DA
:1015D000808360E079E08DE390E005C0108260E8F0
:1015E00074E88EE190E0A80197010E94AE162150A8
:1015F000304040405040569547953795279580E1BB
:101600002030380720F0DD2011F0DD24D6CFE88926
:10161000F9893083EA89FB892083EE89FF8940813B
:1016200021E030E0C9010A8C02C0880F991F0A949A
:10163000E2F7482B4083EE89FF894081C9010B8C7A
:1016400002C0880F991F0A94E2F7482B4083EE8965
:10165000FF894081C9010C8C02C0880F991F0A9430
:10166000E2F7482B4083EE89FF8980810D8C02C010
:10167000220F331F0A94E2F7209528232083DF915D
:10168000CF911F910F91FF90EF90DF90BF90AF909F
:101690000895DC011C96ED91FC911D97E05CFF4FD5
:1016A0002191319180819181281B390B2F733070EA
:1016B000C9010895DC011C96ED91FC911D97E05C39
:1016C000FF4F20813181E054F040DF01AE5BBF4F1E
:1016D0008D919C9111972817390719F42FEF3FEF3F
:1016E00007C08D919C91E80FF91F8081282F30E071
:1016F000C9010895DC011C96ED91FC911D97E05CF9
:10170000FF4F20813181E054F040DF01AE5BBF4FDD
:101710008D919C9111972817390719F42FEF3FEFFE
:1017200010C08D919C911197E80FF91F20818D9128
:101730009C91119701968F73907011969C938E9344
:1017400030E0C9010895FC0186859785DC01A05C25
:10175000BF4FFC01EE5BFF4F2D913C9111978081B3
:10176000918128173907C1F70895CF93DF93EC01D2
:10177000EE85FF85E05CFF4F20813181E054F04031
:101780002F5F3F4F2F733070DF01AE5BBF4F8D91E6
:101790009C91119728173907D1F3E05CFF4F8081A6
:1017A0009181E054F040E80FF91F6083EE85FF85DA
:1017B000E05CFF4F31832083EE89FF89208181E047
:1017C00090E00D8C02C0880F991F0A94E2F7282B35
:1017D000208381E090E0DF91CF9108951F931092D4
:1017E00088061092870628EE33E040E050E0209310
:1017F000890630938A0640938B0650938C0660E3EB
:1018000072E0709386066093850685E694E0909377
:1018100092068093910689EA94E0909394068093CF
:10182000930685EC90E0909396068093950684EC61
:1018300090E0909398068093970680EC90E09093C8
:101840009A068093990681EC90E090939C06809391
:101850009B0686EC90E090939E0680939D0614E094
:1018600010939F06B3E0B093A006A7E0A093A10653
:10187000F5E0F093A206E1E0E093A3061092A7063C
:101880001092A6062093A8063093A9064093AA06B4
:101890005093AB067093A5066093A4068DEE94E07A
:1018A0009093B1068093B00681E395E09093B306E0
:1018B0008093B2068DEC90E09093B5068093B406C9
:1018C0008CEC90E09093B7068093B60688EC90E09D
:1018D0009093B9068093B80689EC90E09093BB068C
:1018E0008093BA068EEC90E09093BD068093BC0680
:1018F0001093BE06B093BF06A093C006F093C10636
:10190000E093C2061092C6061092C5062093C70641
:101910003093C8064093C9065093CA067093C40614
:101920006093C30685E795E09093D0068093CF0639
:1019300089EB95E09093D2068093D10685ED90E0F7
:101940009093D4068093D30684ED90E09093D606CE
:101950008093D50680ED90E09093D8068093D706CB
:1019600081ED90E09093DA068093D90686ED90E0C1
:101970009093DC068093DB061093DD06B093DE06C1
:10198000A093DF06F093E006E093E1061092E506EF
:101990001092E4062093E6063093E7064093E806AB
:1019A0005093E9067093E3066093E2068DEF95E0AD
:1019B0009093EF068093EE0681E496E09093F10613
:1019C0008093F00685E391E09093F3068093F2060E
:1019D00084E391E09093F5068093F40680E391E030
:1019E0009093F7068093F60681E391E09093F906D1
:1019F0008093F80686E391E09093FB068093FA06C5
:101A00001093FC06B093FD06A093FE06F093FF062C
:101A1000E09300071F9108950895CF92DF92EF920F
:101A2000FF920F931F93CF93DF937C016B018A0189
:101A3000C0E0D0E00FC0D6016D916D01D701ED91EE
:101A4000FC910190F081E02DC7011995C80FD91FB5
:101A5000015010400115110571F7CE01DF91CF91B2
:101A60001F910F91FF90EF90DF90CF900895CF934B
:101A7000DF93DB010D900020E9F71197A61BB70B50
:101A8000EC01E881F9810280F381E02DAD01199527
:101A9000DF91CF9108950E94370D0895FC011382C4
:101AA000128280E492E091838083758364835783FC
:101AB00046837187608753874287158A1586148607
:101AC0001786168621E0248B8FEF9FEF938B828BF6
:101AD000918B808B268B08952F923F924F925F922D
:101AE0006F927F928F929F92AF92BF92CF92DF922E
:101AF000EF92FF920F931F93DF93CF93CDB7DEB793
:101B000028970FB6F894DEBF0FBECDBF98878F839E
:101B10001B012A017901580121E030E02E193F090B
:101B20003E832D83C701880F991FAA27BB27A81BB7
:101B3000B90BBA83A983AF81B885ED91FC91119758
:101B4000A701440D551D0480F581E02DCD019801BC
:101B50001995AF81B885ED91FC911197A2014E19AD
:101B60005F090480F581E02DCD01B101980119953F
:101B7000AF81B885ED91FC911197B701620D731D8E
:101B80000480F581E02DCD01A20198011995AF8166
:101B9000B885ED91FC911197B1016E197F09048010
:101BA000F581E02DCD01A201980119953701E1E001
:101BB000F0E0FC83EB83882499249EC02D813E8134
:101BC00037FD0CC008946108710889819A810296DA
:101BD0009A838983280F391F3E832D830894811CA3
:101BE000911CAB81BC811296BC83AB83ED81FE81DD
:101BF000EA0FFB1FFE83ED836401C20CD31C83013B
:101C0000040D151DAF81B885ED91FC9111970480ED
:101C1000F581E02DCD01B601A8019501199571015D
:101C2000E818F908AF81B885ED91FC91119704800F
:101C3000F581E02DCD01B701A8019501199582012B
:101C400006191709AF81B885ED91FC9111970480B1
:101C5000F581E02DCD01B601A80195011995AF815F
:101C6000B885ED91FC9111970480F581E02DCD01AF
:101C7000B701A801950119956301C20CD31C840119
:101C8000040D151DAF81B885ED91FC91119704806D
:101C9000F581E02DCD01B601A801950119957101DD
:101CA000E618F708AF81B885ED91FC911197048093
:101CB000F581E02DCD01B701A801950119958201AB
:101CC00008191909AF81B885ED91FC91119704802D
:101CD000F581E02DCD01B601A80195011995AF81DF
:101CE000B885ED91FC9111970480F581E02DCD012F
:101CF000B701A80195011995861497040CF45ECFDD
:101D000028960FB6F894DEBF0FBECDBFCF91DF91FE
:101D10001F910F91FF90EF90DF90CF90BF90AF9009
:101D20009F908F907F906F905F904F903F902F90FB
:101D300008952F923F924F925F926F927F928F926F
:101D40009F92AF92BF92CF92DF92EF92FF920F934A
:101D50001F93DF93CF93CDB7DEB72E970FB6F894CE
:101D6000DEBF0FBECDBF9E878D871B015E834D8377
:101D7000A701260171E0C72ED12CC21AD30AC901CE
:101D8000880F991F66277727681B790B7A836983E9
:101D90006D807E8008946108710883E0882E912C04
:101DA0008E0C9F1C790181E090E09C838B83AA2498
:101DB000BB2410E0D801A170B070B887AF83FA01DE
:101DC0003196FA87E987B801627070707C876B87FB
:101DD00077C0D7FC0AC00894E108F10889819A818C
:101DE00002969A838983C80ED91E0894A11CB11C3F
:101DF000AB81BC811296BC83AB83EF81F885EF2B5E
:101E000041F1AD85BE85ED91FC911197B501620D53
:101E1000731D4D815E814E195F099701220F331F9B
:101E200089859A85280F391F0084F185E02DCD0121
:101E300082011995AD85BE85ED91FC911197B70191
:101E4000620D731D0084F185E02DCD01A301940185
:101E50001995EB85FC85EF2B41F1AD85BE85ED91A4
:101E6000FC911197B1016A197B094D815E814E1970
:101E70005F099701220F331F89859A85280F391F23
:101E80000084F185E02DCD0182011995AD85BE85D7
:101E9000ED91FC911197B1016E197F090084F185D4
:101EA000E02DCD01A30194011995EB81FC81CE0EAB
:101EB000DF1E08946108710862E070E0860E971ECC
:101EC000AE14BF040CF485CF2E960FB6F894DEBF87
:101ED0000FBECDBFCF91DF911F910F91FF90EF907B
:101EE000DF90CF90BF90AF909F908F907F906F903A
:101EF0005F904F903F902F9008956F927F928F92B6
:101F00009F92AF92BF92CF92DF92EF92FF920F9388
:101F10001F937C014B013A0159016801DC01ED91ED
:101F2000FC91421B530B220F331F2F5F3F4F008446
:101F3000F185E02D1995C701B401A301950103E0D6
:101F4000EE24FF240E94990E1F910F91FF90EF90B5
:101F5000DF90CF90BF90AF909F908F907F906F90C9
:101F600008952F923F924F925F926F927F928F923D
:101F70009F92AF92BF92CF92DF92EF92FF920F9318
:101F80001F93DF93CF9300D00F92CDB7DEB73C0104
:101F90007C836B836A015901FA82E982222433240B
:101FA0009801241B350B37FF03C0309521953F4F17
:101FB000C5014B815C81841B950B97FF03C09095F5
:101FC00081959F4F821793075CF481E0282E312C76
:101FD000C601CB80DC809C838B83C80185015C01BA
:101FE0008B819C81A816B90644F4C501AB80BC80E6
:101FF0009C838B83C80186016C012501AB81BC8168
:102000004A1A5B0A7801EC18FD08F7FE04C0F09448
:10201000E194F108F394C016D10624F088248A9440
:10202000982C03C0B1E08B2E912CC20162E070E0CD
:102030000E949B168B0125C0D301ED91FC912114C8
:10204000310441F00480F581E02DC301B6014B81DC
:102050005C8107C00480F581E02DC3016B817C8128
:10206000A60129813A8119950E191F0917FF04C08D
:10207000C80CD91C040D151DEB81FC813196FC8325
:10208000EB834B815C81A416B506B4F60F900F90DC
:102090000F900F90CF91DF911F910F91FF90EF90D4
:1020A000DF90CF90BF90AF909F908F907F906F9078
:1020B0005F904F903F902F9008954F925F926F9254
:1020C0007F928F929F92AF92BF92CF92DF92EF92C8
:1020D000FF920F931F936C015B014A0139012801A4
:1020E000DC01ED91FC910284F385E02D87011995C7
:1020F000D601ED91FC91A40141505040440D551D75
:102100000284F385E02DC601B50193011995D6012E
:10211000ED91FC910084F185E02DC601B501A4018B
:1021200092011995D601ED91FC910894A108B1088E
:10213000A60CB71C0084F185E02DC601B501A401F1
:10214000920119951F910F91FF90EF90DF90CF9022
:10215000BF90AF909F908F907F906F905F904F90C7
:102160000895CF92DF92EF92FF920F931F93DC01BD
:102170006B017801ED91FC918A0101501040020F32
:10218000131F0680F781E02D960119951F910F917D
:10219000FF90EF90DF90CF900895CF92DF92EF9273
:1021A000FF920F931F93DC016A01C9017801ED9141
:1021B000FC9111979B0121503040280F391F068058
:1021C000F781E02DCD01860119951F910F91FF90A8
:1021D000EF90DF90CF9008956F927F928F929F92B1
:1021E000AF92BF92CF92DF92EF92FF920F931F9325
:1021F000CF93DF935C013A0169014801EB01C60E00
:10220000D71E0DC0D501ED91FC910084F185E02D24
:10221000C501BE01A3019401870119952196CC1532
:10222000DD0584F3DF91CF911F910F91FF90EF9027
:10223000DF90CF90BF90AF909F908F907F906F90E6
:102240000895EF92FF920F931F93FC017B01A081F1
:10225000B18120853185028513851E960D90BC9134
:10226000A02D60E070E040E050E0FD0119951F9165
:102270000F91FF90EF9008952F923F924F925F92AF
:102280006F927F928F929F92AF92BF92CF92DF9286
:10229000EF92FF920F931F93DF93CF93CDB7DEB7EB
:1022A0002F970FB6F894DEBF0FBECDBF5C015E83E3
:1022B0004D8318870F83FA86E986CB86DC01189652
:1022C0008D919C911997681779070CF0A4C01A9604
:1022D0008D919C911B97481759070CF09CC0EC2DD1
:1022E000F0E0FF87EE87CF01880F991F8E0F9F1FA9
:1022F000880F991F860F971F181619060CF08BC0B0
:10230000CF01F3E0880F991FFA95E1F7840F951F2D
:10231000181619060CF07FC085E0289FA001112433
:102320005A8349832B011B011C825C81553011F4B7
:1023300080E005C0E981FA81EC5FFD4F84912C8635
:102340003D866D807E8043011B82C82EDD2480FF88
:102350001CC0D501ED91FC91BB85B13049F40480DE
:10236000F581E02DC501B201A3012F81388522C07E
:102370000684F785E02DC5016C857D85A4012E8539
:102380003F858901EF80F88423C0E985FA852F8194
:102390003885E217F307E9F0D501ED91FC91BB8593
:1023A000B13051F40480F581E02DC501B201A301E3
:1023B00029853A8519950DC00684F785E02DC5015C
:1023C0006C857D85A4012E853F858901E984FA8489
:1023D0001995EB81EF5FEB832E853F85820E931E6F
:1023E0000894611C711CE83021F0D594C7948C2DA1
:1023F000ACCF3C813F5F3C834E855F85240E351E0C
:102400000894411C511C89819A8101969A83898381
:10241000363009F08ACF2F960FB6F894DEBF0FBE84
:10242000CDBFCF91DF911F910F91FF90EF90DF9083
:10243000CF90BF90AF909F908F907F906F905F9064
:102440004F903F902F900895CF92EF92FF920F936D
:102450001F93CF93DF93EC01262F6A3061F42C8910
:1024600030E003E0220F331F0A95E1F78E859F8548
:10247000820F931F37C06D30C9F16C857D854E8505
:102480005F8508891989EA88FB88CC880E943C11FD
:102490002C8986E0289FB00111248C859D85680FCA
:1024A000791F7D876C878E89882301F1422F50E048
:1024B0008AEF9FEF9C01429FC001439F900D529F66
:1024C000900D112428853985820F931F8617970751
:1024D0006CF413E0440F551F1A95E1F78E859F8524
:1024E000840F951F9F878E871D861C8681E090E054
:1024F000DF91CF911F910F91FF90EF90CF900895B2
:102500000895DC0158968C915897882329F06EBD68
:102510000DB407FEFDCF089530E840E050E070E0D4
:10252000832F90E0862397235996ED91FC915A973B
:1025300096962C919697892B21F08081822B80830F
:1025400004C080812095282320835B96ED91FC9127
:102550005C97808197969C919797892B80835B9657
:10256000ED91FC915C97908197968C9197978095CF
:102570008923808336954F5F5F4F4830510581F640
:1025800008950F931F938C01DC015F96ED91FC91F0
:102590009097908199968C919997809589238083C3
:1025A0005D96ED91FC915E97908198968C918095C7
:1025B00089238083C8010E948112D8015D96ED9124
:1025C000FC915E97808198969C91892B80831F91C6
:1025D0000F9108950F931F938C01DC015F96ED918D
:1025E000FC919097808199969C919997892B8083F3
:1025F0005D96ED91FC915E97908198968C91809577
:1026000089238083C8010E948112D8015D96ED91D3
:10261000FC915E97808198969C91892B80831F9175
:102620000F910895CF92DF92EF92FF920F931F9335
:102630007C01162FC42ED22E6AE20E94C112C7015D
:1026400060E00E94EA12F70162A5610FC7010E94D3
:10265000EA12C70160E00E94EA12F70162A56D0D5F
:10266000C7010E94EA12C7016BE20E94C112C701B2
:1026700060E00E94EA12F70163A56C0DC7010E9499
:10268000EA12C70160E00E94EA12F70163A5600F39
:10269000C7010E94EA12C7016CE20E94C1121F9199
:1026A0000F91FF90EF90DF90CF900895FF920F93DE
:1026B0001F93CF93DF93EC01F22E132F77FD2EC0E3
:1026C00088859985681779074CF557FD27C08A8555
:1026D0009B854817590714F5262F2F5F042F0F5F8E
:1026E000CE010E941213EF8DF8A1808199A5892B4C
:1026F0008083ED8DFE8D908188A5809589238083D0
:10270000CE01612F0E948112CE016F2D0E94811295
:10271000ED8DFE8D808198A5892B8083DF91CF91EF
:102720001F910F91FF900895DF92EF92FF920F9308
:102730001F93CF93DF93EC01FB017901D02E8885A5
:10274000998568177907D4F52A853B854217530781
:10275000ACF5C701840F951F281739071CF47901C0
:10276000E41AF50A042F01500E0DCE016E2F2E2F04
:102770000E941213EF8DF8A1808199A5892B808387
:10278000ED8DFE8D908188A580958923808308C07A
:10279000CE01612F0E948112CE016D2D0E94811207
:1027A0000894E108F1088FEFE8168FEFF80681F73B
:1027B000ED8DFE8D808198A5892B8083DF91CF914F
:1027C0001F910F91FF90EF90DF900895DF92EF92AD
:1027D000FF920F931F93CF93DF93EC01FA017901DE
:1027E000D02E2885398562177307D4F58A859B8595
:1027F00048175907ACF5C701860F971F28173907E7
:102800001CF47901E61AF70A262F21502E0DCE016D
:102810004E2F0E2F0E941213EF8DF8A1808199A5E3
:10282000892B8083ED8DFE8D908188A580958923ED
:10283000808308C0CE01612F0E948112CE016D2DD0
:102840000E9481120894E108F1088FEFE8168FEFDB
:10285000F80681F7ED8DFE8D808198A5892B808308
:10286000DF91CF911F910F91FF90EF90DF9008952E
:10287000EF92FF920F931F93FC017B01A081B18126
:1028800020853185028513851E960D90BC91A02D63
:1028900060E070E040E050E0FD0119951F910F915C
:1028A000FF90EF900895AF92BF92CF92DF92EF9298
:1028B000FF920F931F93CF93DF936C015901E801AF
:1028C000DC0118962D913C911997621773070CF053
:1028D00057C01A96ED91FC911B974E175F070CF0AD
:1028E0004FC0C501860F971F281739071CF45901DF
:1028F000A61AB70ACE01840F951FE817F9071CF432
:10290000EF01C41BD50B262F21502A0D042F015097
:102910000C0FC6010E941213D6015F96ED91FC9137
:102920009097808199969C919997892B80835D9649
:10293000ED91FC915E97908198968C91809589237A
:1029400080838E010EC0C6016F2D0E948112C601C8
:102950006E2D0E94811221971C161D06A4F30150B2
:1029600010401016110614F4E501F6CFD6015D965D
:10297000ED91FC915E97808198969C91892B808344
:10298000DF91CF911F910F91FF90EF90DF90CF904B
:10299000BF90AF90089550E04C7F507033E0440FEB
:1029A000551F3A95E1F730E093E0359527959A95D4
:1029B000E1F7422B532B70E0687F7070762F66270B
:1029C000462B572BCA010895662311F460E201C01B
:1029D00061E20E94C1120895AF92BF92CF92DF923E
:1029E000EF92FF920F931F93CF93DF935C01FB0154
:1029F000EB012196D49031C08E010F5F1F4FFE0175
:102A00006491C5010E94C11278010894E11CF11C77
:102A1000F801C4900C2D0F77E701102F08C0FE01BC
:102A20002196E491C5016E2F0E94EA1211501123E4
:102A3000B1F7E701C00FD11DC7FE0EC0FE018491A2
:102A4000682F70E06F3F710511F464EF71E021961B
:102A500080E090E00E941607DA94DD2069F6DF91AD
:102A6000CF911F910F91FF90EF90DF90CF90BF908B
:102A7000AF9008950F931F93CF93DF93EC018B01D9
:102A80001BA61AA68AA161E00E94D10789A161E074
:102A90000E94D107E9A14E2F50E0FA01EE5CFE4FF3
:102AA000E491F0E0EE0FFF1FE250FF4F859194910B
:102AB0009E8F8D8FEAA12E2F30E0F901EE5CFE4F44
:102AC000E491F0E0EE0FFF1FE250FF4F85919491EB
:102AD00098A38F8F48585E4FFA01849188A7285891
:102AE0003E4FF901849189A7888D882361F00E9467
:102AF000651680E00E94541681E00E94461680E030
:102B00000E944F163DC08DA161E00E94D1078CA1AB
:102B100061E00E94D107EDA14E2F50E0FA01EE5C7A
:102B2000FE4FE491F0E0EE0FFF1FE250FF4FA59142
:102B3000B491BC8FAB8FECA12E2F30E0F901EE5C8D
:102B4000FE4FE491F0E0EE0FFF1FE250FF4F859142
:102B500094919A8F898F48585E4FFA0194919FA360
:102B600028583E4FF90184918EA38C91909598231B
:102B70009C93E98DFA8D90818EA180958923808325
:102B8000ED8DFE8D908188A58095892380838BA112
:102B9000882309F161E00E94D1078BA161E00E94C6
:102BA000840864EF71E080E090E00E9416078BA13A
:102BB00060E00E94840864EF71E080E090E00E9491
:102BC00016078BA161E00E94840864EF71E080E049
:102BD00090E00E9416070115110521F0CE01B80101
:102BE0000E94EC14DF91CF911F910F9108951F93D4
:102BF000CF93DF93EC01162F6FEF76E00E943A152A
:102C0000112351F4CE016AE377E00E94EC1482E0D4
:102C10008AA781E08BA705C0CE0167E477E00E9418
:102C2000EC14CE0164E577E00E94EC14123041F41C
:102C3000CE0166E30E94C112CE0160EC0E94EA124E
:102C40001F8BDF91CF911F910895DF92EF92FF923A
:102C50000F931F938C01F62EE42ED22E60E870E0C5
:102C600040EA50E00E944E0D88E592E0F801918321
:102C70008083F1A2E2A2D3A281E0808F15A214A2E8
:102C80001F910F91FF90EF90DF900895882319F422
:102C90008CB5806202C08CB58F7D8CBD08959CB5CB
:102CA000937F982B9CBD08952CB5382F33702C7FC3
:102CB000322B3CBD2DB590E09595879595958795E0
:102CC00081702E7F822B8DBD089584E361E00E9488
:102CD000D10783E361E00E94D10785E361E00E94B0
:102CE000D10784E360E00E94840883E360E00E94EF
:102CF000840885E361E00E9484088CB580618CBD06
:102D00008CB580648CBD0895F8940C94D616AA1BDB
:102D1000BB1B51E107C0AA1FBB1FA617B70710F0C6
:102D2000A61BB70B881F991F5A95A9F780959095F8
:102D3000BC01CD01089597FB092E07260AD077FD27
:102D400004D0E5DF06D000201AF4709561957F4F1E
:102D50000895F6F7909581959F4F0895A1E21A2E58
:102D6000AA1BBB1BFD010DC0AA1FBB1FEE1FFF1F2F
:102D7000A217B307E407F50720F0A21BB30BE40B7F
:102D8000F50B661F771F881F991F1A9469F76095C6
:102D90007095809590959B01AC01BD01CF01089580
:102DA000EE0FFF1F0590F491E02D1994F894FFCFDA
:102DB00043757272656E7420506F736974696F6EBB
:102DC0003A20000A000B000300040002003A005AF7
:102DD00000FFFFFFFFFFFFFFFFE007010000000013
:102DE000B50B0D0D490B7A0B5A0BA30B000000001D
:102DF00024120D0D0C0DB10FB110CD105D10EC10A3
:102E0000211180120000000024120D0D5613B10F85
:0C2E10009413E6135D1053143814E414FE
:00000001FF
