:100000000C94F5030C9421040C9421040C94210409
:100010000C9421040C9421040C9421040C942104CC
:100020000C9421040C9421040C9421040C942104BC
:100030000C9421040C9421040C9421040C942104AC
:100040000C9421040C9421040C9421040C9421049C
:100050000C9421040C9421040C9421040C94910719
:100060000C9421040C94B8090C94980A0C94210463
:100070000C9421040C9421040C9421040C9421046C
:100080000C9421040C9421040C9421040C9421045C
:100090000C94F0090C94D70A0C9421040C942104BC
:1000A0000C9421040C9421040C9421040C9421043C
:1000B0000C9421040C9421040C9421040C9421042C
:1000C0000C9421040C9421040C9421040C94280A0F
:1000D0000C94160B0C9421040C94600A0C94550B90
:1000E0000C94210400002100240027002A002D0088
:1000F0003000330001010000040107010A01000083
:100100002200250028002B002E00310034000201BF
:100110000000050108010B0100002000230026005B
:1001200029002C002F00320000010000030106010D
:10013000090105050505070508080808020202026D
:100140000A0A080804040404010101010101010173
:100150000303030303030303040707070C0C0C0C3E
:100160000C0C0C0C02020202060606060606060627
:100170000B0B0B0B0B0B0B0B0102102020080810B4
:100180002040102040800201020108040201010207
:1001900004081020408080402010080402018004E0
:1001A000020180402010080402010804020101023B
:1001B0000408102040800102040810204080000044
:1001C000090A02080B0C0D070603040100000000D9
:1001D000000000000000000000000000000000001F
:1001E0000000000000000000000011100F000000DF
:1001F00000000000000000000000000000000000FF
:100200000000000000000000003E5B4F5B3E3E6BC4
:100210004F6B3E1C3E7C3E1C183C7E3C181C577DA0
:10022000571C1C5E7F5E1C00183C1800FFE7C3E7EC
:10023000FF0018241800FFE7DBE7FF30483A060EFE
:100240002629792926407F050507407F05253F5A45
:100250003CE73C5A7F3E1C1C08081C1C3E7F1422B5
:100260007F22145F5F005F5F06097F017F00668960
:10027000956A606060606094A2FFA29408047E04A6
:100280000810207E201008082A1C08081C2A0808CC
:100290001E101010100C1E0C1E0C30383E3830068C
:1002A0000E3E0E06000000000000005F0000000788
:1002B000000700147F147F14242A7F2A12231308B6
:1002C000646236495620500008070300001C224192
:1002D000000041221C002A1C7F1C2A08083E080836
:1002E00000807030000808080808000060600020E6
:1002F000100804023E5149453E00427F40007249C9
:100300004949462141494D331814127F102745456C
:1003100045393C4A49493141211109073649494982
:1003200036464949291E00001400000040340000F0
:100330000008142241141414141400412214080259
:10034000015909063E415D594E7C1211127C7F49CC
:100350004949363E414141227F4141413E7F494921
:1003600049417F090909013E414151737F0808084D
:100370007F00417F41002040413F017F081422411E
:100380007F404040407F021C027F7F0408107F3E78
:100390004141413E7F090909063E4151215E7F09E5
:1003A000192946264949493203017F01033F40404C
:1003B000403F1F2040201F3F4038403F6314081437
:1003C0006303047804036159494D43007F4141416F
:1003D0000204081020004141417F04020102044050
:1003E00040404040000307080020545478407F28D4
:1003F0004444383844444428384444287F385454CA
:10040000541800087E090218A4A49C787F080404EC
:100410007800447D40002040403D007F102844008B
:1004200000417F40007C047804787C08040478381C
:1004300044444438FC1824241818242418FC7C084C
:10044000040408485454542404043F44243C4040C9
:10045000207C1C2040201C3C4030403C442810287C
:10046000444C9090907C4464544C440008364100C5
:100470000000770000004136080002010204023C3F
:100480002623263C1EA1A161123A4040207A38540E
:100490005455592155557941215454784121555489
:1004A000784020545579400C1E52721239555555DA
:1004B00059395454545939555454580000457C41C5
:1004C0000002457D420001457C40F0292429F0F0DE
:1004D000282528F07C545545002054547C547C0A2F
:1004E000097F4932494949323248484832324A48FC
:1004F00048303A4141217A3A42402078009DA0A0FC
:100500007D39444444393D4040403D3C24FF24244F
:10051000487E4943662B2FFC2F2BFF0929F620C06C
:10052000887E090320545479410000447D413048BD
:10053000484A32384040227A007A0A0A727D0D1900
:10054000317D2629292F28262929292630484D4062
:1005500020380808080808080808382F10C8ACBA5E
:100560002F102834FA00007B000008142A142222DD
:10057000142A1408AA005500AAAA55AA55AA0000D0
:1005800000FF00101010FF00141414FF001010FFE3
:1005900000FF1010F010F0141414FC001414F700F5
:1005A000FF0000FF00FF1414F404FC141417101FC4
:1005B00010101F101F1414141F00101010F0000052
:1005C00000001F101010101F10101010F01000006D
:1005D00000FF101010101010101010FF100000007D
:1005E000FF140000FF00FF00001F10170000FC04B4
:1005F000F414141710171414F404F40000FF00F797
:1006000014141414141414F700F7141414171410F9
:10061000101F101F141414F4141010F010F0000028
:100620001F101F0000001F14000000FC140000F049
:1006300010F01010FF10FF141414FF141010101FEE
:1006400000000000F010FFFFFFFFFFF0F0F0F0F0FF
:10065000FFFFFF0000000000FFFF0F0F0F0F0F381C
:10066000444438447C2A2A3E147E02020606027E56
:10067000027E0263554941633844443C04407E2075
:100680001E2006027E020299A5E7A5991C2A492A86
:100690001C4C7201724C304A4D4D30304878483015
:1006A000BC625A463D3E494949007E0101017E2A0D
:1006B0002A2A2A2A44445F444440514A4440404440
:1006C0004A51400000FF0103E080FF000008086B72
:1006D0006B083612362436060F090F06000018186C
:1006E0000000001010003040FF0101001F01011E3A
:1006F00000191D1712003C3C3C3C00000000000F9C
:100700000180961180FFB103012C2DB203012C2D25
:10071000B306012C2D012C2DB40107C003A20284C5
:10072000C101C5C2020A00C3028A2AC4028AEEC5F8
:10073000010E20003601C83A0105022A0400020019
:10074000812B04000100A0022A040000007F2B047A
:100750000000009F04E010021C07123732292D29E7
:10076000252B3900010310E110031D07062E2C294B
:100770002D2E2E373F0000021013800A29806412AC
:100780000180321180FF3A81050AB1830006030A15
:10079000360108B6021502B40100C08202700AC117
:1007A0000105C2020102C5823C380AFC021115E0B3
:1007B0001009160920211B131917151E2B040502F9
:1007C0000EE1900B14081E221D181E1B1A242B0666
:1007D00006020F0A2A04000200812B040002008195
:1007E00013800A2980FF2304BF0C11241FBECFEF02
:1007F000D1E2DEBFCDBF00E00CBF12E0A0E0B2E06E
:10080000ECE7F1E300E00BBF02C007900D92AA37BE
:10081000B107D9F717E0AAE7B2E001C01D92A131F4
:10082000B107E1F717E0CAEED7E004C02297FE0156
:100830000E94B818C63ED107C9F70E9414070C944D
:100840004B180C9400000F931F930AE712E0C801A5
:1008500066E047E028E00E94EC1786EA92E06DE04F
:1008600049E02CE00E94EC17C8016FEF4FEF20E049
:100870000E94921690936B0480936A041F910F91CB
:10088000089583E060E00E94A20883E061E00E9496
:10089000550980E00E945D0790936504809364048D
:1008A00081E00E945D079093670480936604089539
:1008B0000F931F93CF93DF938AE792E062E00E9449
:1008C000BE1786EA92E062E00E94BE1786EA92E0D6
:1008D00060E070E00E94FF158AE792E060E070E05F
:1008E0000E94FF15C4E2D0E08AE792E064E070E085
:1008F000AE0128E730E00FEF1FEF0E94AD1586EA4A
:1009000092E064E070E0AE0128E730E000EE17E02E
:100910000E94AD152C96C83AD10531F7C4E0D0E05D
:100920008AE792E0BE0144E250E028E730E00FEFB2
:100930001FEF0E945B1586EA92E0BE0144E250E0A0
:1009400028E730E000EE17E00E945B152C96C838CF
:10095000D10531F760913202709133024091340237
:100960005091350286EA92E025E030E00E94441181
:1009700066E970E080E090E00E94E707DF91CF91A8
:100980001F910F9108950E9458040E94410480E035
:1009900090E0FC01EE52FD4F11821082FC01E65600
:1009A000FC4F1182108246968C3D910591F7089577
:1009B000CF92DF92EF92FF920F931F930091620408
:1009C0001091630401151105C9F585E996E060E011
:1009D00072E00E94020FE0902A02F0902B02C09079
:1009E0002C02D0902D02C6014E976CE070E00E9460
:1009F00081188B01C70102976CE070E00E9481189A
:100A000021E030E0CB01FB01A3E0EE0FFF1FAA9530
:100A1000E1F7880F991FE80FF91FE00FF11FE21BA4
:100A2000F30BEE0FFF1FE656FC4F3183208300913E
:100A300036021091370286EA92E039C00130110582
:100A4000E1F585E996E063E172E00E94020FE09033
:100A50003202F0903302C0903402D0903502C601C9
:100A60004E976CE070E00E9481189B01C7010297CD
:100A70006CE070E00E948118CB01FB0153E0EE0FA7
:100A8000FF1F5A95E1F7880F991FE80FF91FE20F32
:100A9000F31FE01BF10BEE0FFF1FEE52FD4F118312
:100AA000008300913602109137028AE792E0B70185
:100AB000A60125E030E00E94330F1F910F91FF90B7
:100AC000EF90DF90CF900895EF92FF920F931F93D6
:100AD0008091620490916304892B09F079C0609140
:100AE0002A0270912B0280912602909127026817AA
:100AF000790761F420912C0230912D028091280217
:100B0000909129022817390709F462C040912C02FC
:100B100050912D028AE792E025E030E000E010E0FD
:100B20000E94441160912A0270912B02665070401D
:100B300040912C0250912D02465050408AE792E09D
:100B40002CE030E00CE010E0EE24FF240E942412A0
:100B500060912A0270912B026650704040912C02E5
:100B600050912D02465050408AE792E02CE030E050
:100B70000FEF1FEF0E945B1560912A0270912B020C
:100B80006650704040912C0250912D0246505040CA
:100B90008AE792E02CE030E00E94AD1560912602D9
:100BA0007091270270932B0260932A0240912802D1
:100BB0005091290250932D0240932C02009136024D
:100BC000109137028AE792E025E030E00E9444115C
:100BD0008091620490916304019709F075C060915F
:100BE00032027091330280912E0290912F02681789
:100BF000790761F4209134023091350280913002FE
:100C0000909131022817390709F45EC040913402EF
:100C10005091350286EA92E025E030E000E010E0F5
:100C20000E9444116091320270913302665070400C
:100C300040913402509135024650504086EA92E08D
:100C40002CE030E00CE010E0EE24FF240E9424129F
:100C500060913202709133026650704040913402CC
:100C6000509135024650504086EA92E02CE030E048
:100C700000EE17E00E945B15609132027091330222
:100C800066507040409134025091350246505040B9
:100C900086EA92E02CE030E00E94AD1560912E02D1
:100CA00070912F02709333026093320240913002B0
:100CB00050913102509335024093340286EA92E01B
:100CC00025E030E00E9444111F910F91FF90EF90BA
:100CD0000895CF93DF9380E00E945D07EC0181E0EF
:100CE0000E945D0720916204309163042115310553
:100CF00071F522E0CC3BD20734F08091280290912C
:100D000029020C9608C0CD52D14054F4809128029B
:100D1000909129020C97909329028093280247C052
:100D200021E08D32920734F48091260290912702BF
:100D30000C9708C08C5B9240D4F180912602909170
:100D400027020C96909327028093260230C0213010
:100D5000310569F522E0CC3BD20734F080913002B6
:100D6000909131020C9608C0CD52D14054F480913C
:100D70003002909131020C979093310280933002AF
:100D800016C021E08D32920734F480912E029091AA
:100D90002F020C9708C08C5B92404CF080912E0281
:100DA00090912F020C9690932F0280932E028091A7
:100DB0002802909129028739910534F08AE290E067
:100DC0009093290280932802809128029091290211
:100DD0008A9734F486E990E0909329028093280260
:100DE00080912602909127020A9734F486E790E0DA
:100DF00090932702809326028091260290912702E9
:100E00008737910534F08AE090E090932702809331
:100E100026020E9464056AEF70E080E090E00E9484
:100E2000E707DF91CF9108950F931F93CF93DF933F
:100E30000E94400885E996E040E855E260E070E0F5
:100E40000E94940B0E94C3040E94D907C1E0D0E025
:100E5000009162041091630485E996E06CE172E010
:100E60000E94FF0E60E070E0012B11F461E070E081
:100E700085E996E04AE050E00E94E00E0E94690693
:100E800083E00E9488099093690480936804892B09
:100E9000F9F60E94D804809162049091630400974F
:100EA00029F4D0936304C0936204D2CF019781F6F2
:100EB0001092630410926204CBCF382F863308F06F
:100EC000365320917B00832F86958695869590E0FA
:100ED0008170907043E0880F991F4A95E1F7277F52
:100EE000282B20937B003770809138028295880FE1
:100EF000880F807C832B80937C0080917A008064B3
:100F000080937A0080917A0086FDFCCF2091780052
:100F100040917900942F80E030E0282B392BC901D3
:100F200008951F920F920FB60F9211242F933F93A3
:100F30008F939F93AF93BF938091700490917104AE
:100F4000A0917204B0917304309174040196A11DB4
:100F5000B11D232F2D5F2D3720F02D570196A11D98
:100F6000B11D209374048093700490937104A09336
:100F70007204B093730480916C0490916D04A091FD
:100F80006E04B0916F040196A11DB11D80936C0495
:100F900090936D04A0936E04B0936F04BF91AF91D2
:100FA0009F918F913F912F910F900FBE0F901F90A7
:100FB00018958FB7F8942091700430917104409186
:100FC0007204509173048FBFB901CA0108959B0147
:100FD000AC017FB7F89480916C0490916D04A0915E
:100FE0006E04B0916F0466B5A89B05C06F3F19F001
:100FF0000196A11DB11D7FBFBA2FA92F982F882759
:10100000860F911DA11DB11D62E0880F991FAA1FB7
:10101000BB1F6A95D1F7BC012DC0FFB7F894809132
:101020006C0490916D04A0916E04B0916F04E6B5CC
:10103000A89B05C0EF3F19F00196A11DB11DFFBF90
:10104000BA2FA92F982F88278E0F911DA11DB11D92
:10105000E2E0880F991FAA1FBB1FEA95D1F7861BF4
:10106000970B885E9340C8F221503040404050407A
:1010700068517C4F211531054105510571F60895E0
:10108000789484B5826084BD84B5816084BD85B563
:10109000826085BD85B5816085BDEEE6F0E080812A
:1010A00081608083E1E8F0E010828081826080834B
:1010B000808181608083E0E8F0E0808181608083CE
:1010C000E1EBF0E0808184608083E0EBF0E0808100
:1010D00081608083E1E9F0E08081826080838081AB
:1010E00081608083E0E9F0E0808181608083E1EAD3
:1010F000F0E0808182608083808181608083E0EA8B
:10110000F0E0808181608083E1E2F1E080818260B3
:101110008083808181608083E0E2F1E08081816072
:101120008083EAE7F0E08081846080838081826050
:101130008083808181608083808180688083109239
:10114000C1000895CF93DF93482F50E0CA0188581B
:101150009E4FFC0134914E5C5E4FFA0184918823CE
:1011600069F190E0880F991FFC01EC51FF4FA591A8
:10117000B491FC01E250FF4FC591D491662351F424
:101180002FB7F8948C91932F909589238C93888115
:1011900089230BC0623061F42FB7F8948C91932FA0
:1011A000909589238C938881832B88832FBF06C0D9
:1011B0009FB7F8948C91832B8C939FBFDF91CF9135
:1011C0000895893009F449C08A30A0F4843051F17F
:1011D000853040F4823079F1833000F5813009F0B8
:1011E00063C026C0873079F1883098F5863009F0E1
:1011F0005BC025C08D3009F442C08E3028F48B309E
:10120000B1F18C30C0F52DC0803109F442C081317C
:1012100009F445C08F3009F047C037C08091800085
:101220008F7703C0809180008F7D80938000089528
:1012300084B58F7702C084B58F7D84BD0895809179
:10124000B0008F7703C08091B0008F7D8093B00095
:101250000895809190008F7707C0809190008F7DD6
:1012600003C080919000877F8093900008958091C3
:10127000A0008F7707C08091A0008F7D03C0809170
:10128000A000877F8093A0000895809120018F7730
:1012900003C0809120018F7D80932001089580916B
:1012A0002001877F809320010895FF920F931F9361
:1012B000F62E482F50E0CA0182549E4FFC01249123
:1012C000CA0188589E4FFC0114914E5C5E4FFA0192
:1012D00004910023C9F0222319F0822F0E94E10813
:1012E000E02FF0E0EE0FFF1FE250FF4FA591B49109
:1012F0009FB7F894FF2021F48C911095812302C0B0
:101300008C91812B8C939FBF1F910F91FF9008951B
:101310000F931F93482F50E0CA0182549E4FFC0147
:101320002491CA0188589E4FFC0104914E5C5E4F87
:10133000FA011491112319F420E030E015C02223A2
:1013400019F0822F0E94E108812F90E0880F991FE9
:10135000885E9E4FFC01A591B4918C9120E030E015
:10136000802311F021E030E0C9011F910F91089511
:101370001F920F920FB60F920BB60F9211242F935C
:101380003F934F938F939F93EF93FF934091C600AA
:101390002091B5043091B6042F5F3F4F2F7330700A
:1013A0008091B7049091B8042817390759F0E0915B
:1013B000B504F091B604EB58FB4F40833093B6046C
:1013C0002093B504FF91EF919F918F914F913F91A1
:1013D0002F910F900BBE0F900FBE0F901F9018957E
:1013E0001F920F920FB60F920BB60F9211242F93EC
:1013F0003F934F938F939F93EF93FF934091CE0032
:1014000020913D0530913E052F5F3F4F2F73307087
:1014100080913F05909140052817390759F0E091D8
:101420003D05F0913E05E350FB4F408330933E0570
:1014300020933D05FF91EF919F918F914F913F91A7
:101440002F910F900BBE0F900FBE0F901F9018950D
:101450001F920F920FB60F920BB60F9211242F937B
:101460003F934F938F939F93EF93FF934091D600B9
:101470002091C5053091C6052F5F3F4F2F73307007
:101480008091C7059091C8052817390759F0E09158
:10149000C505F091C605EB57FA4F40833093C6055A
:1014A0002093C505FF91EF919F918F914F913F91AF
:1014B0002F910F900BBE0F900FBE0F901F9018959D
:1014C0001F920F920FB60F920BB60F9211242F930B
:1014D0003F934F938F939F93EF93FF9340913601E8
:1014E00020914D0630914E062F5F3F4F2F73307085
:1014F00080914F06909150062817390759F0E091D6
:101500004D06F0914E06E35FF94F408330934E064F
:1015100020934D06FF91EF919F918F914F913F91B5
:101520002F910F900BBE0F900FBE0F901F9018952C
:101530001F920F920FB60F920BB60F9211242F939A
:101540003F938F939F93EF93FF932091F9043091F2
:10155000FA048091FB049091FC042817390731F4B8
:101560008091C1008F7D8093C10014C0E091FB0485
:10157000F091FC04E754FB4F20818091FB04909193
:10158000FC0401968F7390709093FC048093FB048D
:101590002093C600FF91EF919F918F913F912F91E2
:1015A0000F900BBE0F900FBE0F901F9018951F92BB
:1015B0000F920FB60F920BB60F9211242F933F93F9
:1015C0008F939F93EF93FF93209181053091820534
:1015D00080918305909184052817390731F4809113
:1015E000C9008F7D8093C90014C0E0918305F091FC
:1015F0008405EF5BFA4F20818091830590918405EB
:1016000001968F7390709093840580938305209347
:10161000CE00FF91EF919F918F913F912F910F906D
:101620000BBE0F900FBE0F901F9018951F920F9238
:101630000FB60F920BB60F9211242F933F938F93F7
:101640009F93EF93FF932091090630910A068091B2
:101650000B0690910C062817390731F48091D100C0
:101660008F7D8093D10014C0E0910B06F0910C06A1
:10167000E753FA4F208180910B0690910C0601965A
:101680008F73907090930C0680930B062093D60076
:10169000FF91EF919F918F913F912F910F900BBEF2
:1016A0000F900FBE0F901F9018951F920F920FB6BC
:1016B0000F920BB60F9211242F933F938F939F930A
:1016C000EF93FF93209191063091920680919306BB
:1016D000909194062817390731F4809131018F7D5C
:1016E0008093310114C0E0919306F0919406EF5A73
:1016F000F94F2081809193069091940601968F7303
:101700009070909394068093930620933601FF91F6
:10171000EF919F918F913F912F910F900BBE0F9062
:101720000FBE0F901F901895AF92BF92DF92EF926D
:10173000FF920F931F93CF93DF93EC017A018B01FC
:10174000DD24403081EE580780E0680780E07807AC
:1017500011F0DD24D39491E0A92EB12CEC89FD8900
:10176000DD2069F0C5010E8C02C0880F991F0A9414
:10177000E2F7808360E079E08DE390E005C01082BD
:1017800060E874E88EE190E0A80197010E94941847
:101790002150304040405040569547953795279509
:1017A00080E12030380720F0DD2011F0DD24D6CF95
:1017B000E889F9893083EA89FB892083EE89FF89EA
:1017C000408121E030E0C9010A8C02C0880F991FD6
:1017D0000A94E2F7482B4083EE89FF894081C901D2
:1017E0000B8C02C0880F991F0A94E2F7482B4083A4
:1017F000EE89FF894081C9010C8C02C0880F991FB6
:101800000A94E2F7482B4083EE89FF8980810D8C92
:1018100002C0220F331F0A94E2F720952823208369
:10182000DF91CF911F910F91FF90EF90DF90BF90CC
:10183000AF900895DC011C96ED91FC911D97E05C42
:10184000FF4F2191319180819181281B390B2F739A
:101850003070C9010895DC011C96ED91FC911D9733
:10186000E05CFF4F20813181E054F040DF01AE5B4E
:10187000BF4F8D919C9111972817390719F42FEFBD
:101880003FEF07C08D919C91E80FF91F8081282FB1
:1018900030E0C9010895DC011C96ED91FC911D9783
:1018A000E05CFF4F20813181E054F040DF01AE5B0E
:1018B000BF4F8D919C9111972817390719F42FEF7D
:1018C0003FEF10C08D919C911197E80FF91F208177
:1018D0008D919C91119701968F73907011969C93A6
:1018E0008E9330E0C9010895FC0186859785DC015F
:1018F000A05CBF4FFC01EE5BFF4F2D913C91119717
:101900008081918128173907C1F70895CF93DF931C
:10191000EC01EE85FF85E05CFF4F20813181E054D2
:10192000F0402F5F3F4F2F733070DF01AE5BBF4F32
:101930008D919C91119728173907D1F3E05CFF4FE7
:1019400080819181E054F040E80FF91F6083EE85BB
:10195000FF85E05CFF4F31832083EE89FF89208182
:1019600081E090E00D8C02C0880F991F0A94E2F785
:10197000282B208381E090E0DF91CF9108951F9381
:10198000109298061092970628EE33E040E050E05F
:101990002093990630939A0640939B0650939C0699
:1019A0006DE372E0709396066093950685E794E088
:1019B0009093A2068093A10689EB94E09093A406ED
:1019C0008093A30685EC90E09093A6068093A506ED
:1019D00084EC90E09093A8068093A70680EC90E0BA
:1019E0009093AA068093A90681EC90E09093AC06B0
:1019F0008093AB0686EC90E09093AE068093AD06A4
:101A000014E01093AF06B3E0B093B006A7E0A09344
:101A1000B106F5E0F093B206E1E0E093B306109270
:101A2000B7061092B6062093B8063093B9064093D5
:101A3000BA065093BB067093B5066093B4068DEF5B
:101A400094E09093C1068093C00681E495E0909362
:101A5000C3068093C2068DEC90E09093C5068093F8
:101A6000C4068CEC90E09093C7068093C60688EC81
:101A700090E09093C9068093C80689EC90E090931B
:101A8000CB068093CA068EEC90E09093CD068093AF
:101A9000CC061093CE06B093CF06A093D006F09359
:101AA000D106E093D2061092D6061092D506209366
:101AB000D7063093D8064093D9065093DA06709330
:101AC000D4066093D30685E895E09093E006809372
:101AD000DF0689EC95E09093E2068093E10685EDC0
:101AE00090E09093E4068093E30684ED90E0909379
:101AF000E6068093E50680ED90E09093E8068093FB
:101B0000E70681ED90E09093EA068093E90686ED82
:101B100090E09093EC068093EB061093ED06B09363
:101B2000EE06A093EF06F093F006E093F106109214
:101B3000F5061092F4062093F6063093F7064093CC
:101B4000F8065093F9067093F3066093F2068DE061
:101B500096E09093FF068093FE0681E596E09093D1
:101B600001078093000785E391E09093030780933A
:101B7000020784E391E0909305078093040780E3D4
:101B800091E0909307078093060781E391E090939B
:101B900009078093080786E391E090930B078093F1
:101BA0000A0710930C07B0930D07A0930E07F0934C
:101BB0000F07E09310071F9108950895CF92DF92C9
:101BC000EF92FF920F931F93CF93DF937C016B01F2
:101BD0008A01C0E0D0E00FC0D6016D916D01D70140
:101BE000ED91FC910190F081E02DC7011995C80F8E
:101BF000D91F015010400115110571F7CE01DF9179
:101C0000CF911F910F91FF90EF90DF90CF900895AB
:101C1000EF92FF920F931F938C01DC01ED91FC91E9
:101C20000190F081E02D6DE019957C01D801ED91D6
:101C3000FC910190F081E02DC8016AE019959C01AA
:101C40002E0D3F1DC9011F910F91FF90EF90089538
:101C5000CF93DF93DB010D900020E9F71197A61BCE
:101C6000B70BEC01E881F9810280F381E02DAD0131
:101C70001995DF91CF9108954F925F927F928F9245
:101C80009F92AF92BF92CF92DF92EF92FF920F930B
:101C90001F93DF93CF93CDB7DEB7A1970FB6F8941C
:101CA000DEBF0FBECDBF2C01742ECB01223008F455
:101CB0002AE019A231E2C32ED12CCC0EDD1E822ED9
:101CC0009924AA24BB24672D752FA50194010E9495
:101CD000941879018A01C801B701A50194010E94F5
:101CE0004E18472D461B0894C108D1084A3014F4F9
:101CF000405D01C0495CF6014083E114F104010537
:101D0000110521F07E2C5F2DC801DDCFC201B60187
:101D10000E94280EA1960FB6F894DEBF0FBECDBF6D
:101D2000CF91DF911F910F91FF90EF90DF90CF90B7
:101D3000BF90AF909F908F907F905F904F9008954D
:101D4000CF92DF92EF92FF920F931F93CF93DF9387
:101D5000EC016A017B012115310541F4E881F9812B
:101D60000190F081E02D642F19951FC02A303105B4
:101D7000D1F477FF17C0E881F9810190F081E02D5F
:101D80006DE219958C0144275527BA014C195D095C
:101D90006E097F09CE012AE00E943C0E9801280FAF
:101DA000391F04C02AE00E943C0E9C01C901DF914A
:101DB000CF911F910F91FF90EF90DF90CF900895FA
:101DC000CF92DF92EF92FF920F931F936C017B01F2
:101DD0009A010027F7FC0095102FB801A7010E9477
:101DE000A00E8C01C6010E94080E080F191FC80121
:101DF0001F910F91FF90EF90DF90CF9008950E9478
:101E0000280E0895EF92FF920F931F937C010E947A
:101E1000280E8C01C7010E94080E080F191FC80167
:101E20001F910F91FF90EF900895FC011382128291
:101E30008DE492E091838083758364835783468326
:101E40007187608753874287158A1586148617869F
:101E5000168621E0248B8FEF9FEF938B828B918BE3
:101E6000808B268B08952F923F924F925F926F92B4
:101E70007F928F929F92AF92BF92CF92DF92EF921A
:101E8000FF920F931F93DF93CF93CDB7DEB72897C1
:101E90000FB6F894DEBF0FBECDBF98878F831B01AE
:101EA0002A017901580121E030E02E193F093E83D3
:101EB0002D83C701880F991FAA27BB27A81BB90B21
:101EC000BA83A983AF81B885ED91FC911197A701E1
:101ED000440D551D0480F581E02DCD019801199523
:101EE000AF81B885ED91FC911197A2014E195F0960
:101EF0000480F581E02DCD01B10198011995AF81E4
:101F0000B885ED91FC911197B701620D731D0480A6
:101F1000F581E02DCD01A20198011995AF81B88519
:101F2000ED91FC911197B1016E197F090480F58143
:101F3000E02DCD01A201980119953701E1E0F0E013
:101F4000FC83EB83882499249EC02D813E8137FD3C
:101F50000CC008946108710889819A8102969A835D
:101F60008983280F391F3E832D830894811C911C7F
:101F7000AB81BC811296BC83AB83ED81FE81EA0FFD
:101F8000FB1FFE83ED836401C20CD31C8301040D8F
:101F9000151DAF81B885ED91FC9111970480F581F5
:101FA000E02DCD01B601A801950119957101E81840
:101FB000F908AF81B885ED91FC9111970480F58106
:101FC000E02DCD01B701A8019501199582010619EF
:101FD0001709AF81B885ED91FC9111970480F581C7
:101FE000E02DCD01B601A80195011995AF81B88505
:101FF000ED91FC9111970480F581E02DCD01B701A1
:10200000A801950119956301C20CD31C8401040D2C
:10201000151DAF81B885ED91FC9111970480F58174
:10202000E02DCD01B601A801950119957101E618C1
:10203000F708AF81B885ED91FC9111970480F58187
:10204000E02DCD01B701A80195011995820108196C
:102050001909AF81B885ED91FC9111970480F58144
:10206000E02DCD01B601A80195011995AF81B88584
:10207000ED91FC9111970480F581E02DCD01B70120
:10208000A80195011995861497040CF45ECF289643
:102090000FB6F894DEBF0FBECDBFCF91DF911F9179
:1020A0000F91FF90EF90DF90CF90BF90AF909F90F7
:1020B0008F907F906F905F904F903F902F900895FA
:1020C0002F923F924F925F926F927F928F929F9248
:1020D000AF92BF92CF92DF92EF92FF920F931F9336
:1020E000DF93CF93CDB7DEB72E970FB6F894DEBF50
:1020F0000FBECDBF9E878D871B015E834D83A701D9
:10210000260171E0C72ED12CC21AD30AC901880F4B
:10211000991F66277727681B790B7A8369836D80FF
:102120007E8008946108710883E0882E912C8E0CC3
:102130009F1C790181E090E09C838B83AA24BB24BF
:1021400010E0D801A170B070B887AF83FA01319662
:10215000FA87E987B801627070707C876B8777C0F7
:10216000D7FC0AC00894E108F10889819A81029697
:102170009A838983C80ED91E0894A11CB11CAB8117
:10218000BC811296BC83AB83EF81F885EF2B41F1C4
:10219000AD85BE85ED91FC911197B501620D731D62
:1021A0004D815E814E195F099701220F331F89858A
:1021B0009A85280F391F0084F185E02DCD01820119
:1021C0001995AD85BE85ED91FC911197B701620D12
:1021D000731D0084F185E02DCD01A30194011995B3
:1021E000EB85FC85EF2B41F1AD85BE85ED91FC9132
:1021F0001197B1016A197B094D815E814E195F0902
:102200009701220F331F89859A85280F391F008473
:10221000F185E02DCD0182011995AD85BE85ED9149
:10222000FC911197B1016E197F090084F185E02DB1
:10223000CD01A30194011995EB81FC81CE0EDF1E27
:1022400008946108710862E070E0860E971EAE1473
:10225000BF040CF485CF2E960FB6F894DEBF0FBEE8
:10226000CDBFCF91DF911F910F91FF90EF90DF9045
:10227000CF90BF90AF909F908F907F906F905F9026
:102280004F903F902F9008956F927F928F929F92E0
:10229000AF92BF92CF92DF92EF92FF920F931F9374
:1022A0007C014B013A0159016801DC01ED91FC917F
:1022B000421B530B220F331F2F5F3F4F0084F185CA
:1022C000E02D1995C701B401A301950103E0EE24A7
:1022D000FF240E9460101F910F91FF90EF90DF90FC
:1022E000CF90BF90AF909F908F907F906F90089508
:1022F0002F923F924F925F926F927F928F929F9216
:10230000AF92BF92CF92DF92EF92FF920F931F9303
:10231000DF93CF9300D00F92CDB7DEB73C017C8323
:102320006B836A015901FA82E982222433249801DD
:10233000241B350B37FF03C0309521953F4FC50156
:102340004B815C81841B950B97FF03C09095819511
:102350009F4F821793075CF481E0282E312CC60131
:10236000CB80DC809C838B83C80185015C018B81E1
:102370009C81A816B90644F4C501AB80BC809C833F
:102380008B83C80186016C012501AB81BC814A1A8F
:102390005B0A7801EC18FD08F7FE04C0F094E194A4
:1023A000F108F394C016D10624F088248A94982C5E
:1023B00003C0B1E08B2E912CC20162E070E00E945C
:1023C00081188B0125C0D301ED91FC9121143104BA
:1023D00041F00480F581E02DC301B6014B815C81A1
:1023E00007C00480F581E02DC3016B817C81A601CB
:1023F00029813A8119950E191F0917FF04C0C80CCD
:10240000D91C040D151DEB81FC813196FC83EB83F7
:102410004B815C81A416B506B4F60F900F900F9017
:102420000F90CF91DF911F910F91FF90EF90DF9070
:10243000CF90BF90AF909F908F907F906F905F9064
:102440004F903F902F9008954F925F926F927F929E
:102450008F929F92AF92BF92CF92DF92EF92FF92B4
:102460000F931F936C015B014A0139012801DC01C4
:10247000ED91FC910284F385E02D87011995D60139
:10248000ED91FC91A40141505040440D551D028432
:10249000F385E02DC601B50193011995D601ED91A3
:1024A000FC910084F185E02DC601B501A4019201E3
:1024B0001995D601ED91FC910894A108B108A60CDC
:1024C000B71C0084F185E02DC601B501A40192017D
:1024D00019951F910F91FF90EF90DF90CF90BF90D3
:1024E000AF909F908F907F906F905F904F900895E6
:1024F000CF92DF92EF92FF920F931F93DC016B015B
:102500007801ED91FC918A0101501040020F131FD8
:102510000680F781E02D960119951F910F91FF908C
:10252000EF90DF90CF900895CF92DF92EF92FF92DD
:102530000F931F93DC016A01C9017801ED91FC91B1
:1025400011979B0121503040280F391F0680F781D9
:10255000E02DCD01860119951F910F91FF90EF900D
:10256000DF90CF9008956F927F928F929F92AF925B
:10257000BF92CF92DF92EF92FF920F931F93CF9370
:10258000DF935C013A0169014801EB01C60ED71ED9
:102590000DC0D501ED91FC910084F185E02DC501C0
:1025A000BE01A3019401870119952196CC15DD0583
:1025B00084F3DF91CF911F910F91FF90EF90DF9007
:1025C000CF90BF90AF909F908F907F906F90089525
:1025D000EF92FF920F931F93FC017B01A081B181C9
:1025E00020853185028513851E960D90BC91A02D06
:1025F00060E070E040E050E0FD0119951F910F91FF
:10260000FF90EF9008952F923F924F925F926F92BA
:102610007F928F929F92AF92BF92CF92DF92EF9272
:10262000FF920F931F93DF93CF93CDB7DEB72F9712
:102630000FB6F894DEBF0FBECDBF5C015E834D8345
:1026400018870F83FA86E986CB86DC0118968D9170
:102650009C911997681779070CF0A4C01A968D9170
:102660009C911B97481759070CF09CC0EC2DF0E08B
:10267000FF87EE87CF01880F991F8E0F9F1F880F4E
:10268000991F860F971F181619060CF08BC0CF01E3
:10269000F3E0880F991FFA95E1F7840F951F18163C
:1026A00019060CF07FC085E0289FA00111245A83F1
:1026B00049832B011B011C825C81553011F480E0A1
:1026C00005C0E981FA81EC5FFD4F84912C863D863F
:1026D0006D807E8043011B82C82EDD2480FF1CC0DC
:1026E000D501ED91FC91BB85B13049F40480F581B1
:1026F000E02DC501B201A3012F81388522C00684D7
:10270000F785E02DC5016C857D85A4012E853F856B
:102710008901EF80F88423C0E985FA852F81388507
:10272000E217F307E9F0D501ED91FC91BB85B130DB
:1027300051F40480F581E02DC501B201A301298582
:102740003A8519950DC00684F785E02DC5016C8585
:102750007D85A4012E853F858901E984FA84199538
:10276000EB81EF5FEB832E853F85820E931E0894ED
:10277000611C711CE83021F0D594C7948C2DACCF2E
:102780003C813F5F3C834E855F85240E351E089457
:10279000411C511C89819A8101969A838983363024
:1027A00009F08ACF2F960FB6F894DEBF0FBECDBFCB
:1027B000CF91DF911F910F91FF90EF90DF90CF901D
:1027C000BF90AF909F908F907F906F905F904F9051
:1027D0003F902F900895CF92EF92FF920F931F9307
:1027E000CF93DF93EC01262F6A3061F42C8930E01F
:1027F00003E0220F331F0A95E1F78E859F85820F34
:10280000931F37C06D30C9F16C857D854E855F851E
:1028100008891989EA88FB88CC880E9403132C89CF
:1028200086E0289FB00111248C859D85680F791F53
:102830007D876C878E89882301F1422F50E08AEFD3
:102840009FEF9C01429FC001439F900D529F900DAE
:10285000112428853985820F931F861797076CF4FA
:1028600013E0440F551F1A95E1F78E859F85840F5D
:10287000951F9F878E871D861C8681E090E0DF91E3
:10288000CF911F910F91FF90EF90CF9008950895F1
:10289000DC0158968C915897882329F06EBD0DB4B1
:1028A00007FEFDCF089530E840E050E070E0832F50
:1028B00090E0862397235996ED91FC915A9796962E
:1028C0002C919697892B21F08081822B808304C0E4
:1028D00080812095282320835B96ED91FC915C9765
:1028E000808197969C919797892B80835B96ED9139
:1028F000FC915C97908197968C919797809589230E
:10290000808336954F5F5F4F4830510581F60895BB
:102910000F931F938C01DC015F96ED91FC919097D2
:10292000908199968C9199978095892380835D9663
:10293000ED91FC915E97908198968C91809589237A
:102940008083C8010E944814D8015D96ED91FC91E6
:102950005E97808198969C91892B80831F910F911F
:1029600008950F931F938C01DC015F96ED91FC910C
:102970009097808199969C919997892B80835D96F9
:10298000ED91FC915E97908198968C91809589232A
:102990008083C8010E944814D8015D96ED91FC9196
:1029A0005E97808198969C91892B80831F910F91CF
:1029B0000895CF92DF92EF92FF920F931F937C01C5
:1029C000162FC42ED22E6AE20E948814C70160E03E
:1029D0000E94B114F70162A5610FC7010E94B114F2
:1029E000C70160E00E94B114F70162A56D0DC70137
:1029F0000E94B114C7016BE20E948814C70160E015
:102A00000E94B114F70163A56C0DC7010E94B114B7
:102A1000C70160E00E94B114F70163A5600FC70110
:102A20000E94B114C7016CE20E9488141F910F919B
:102A3000FF90EF90DF90CF900895FF920F931F9338
:102A4000CF93DF93EC01F22E132F77FD2EC08885F4
:102A50009985681779074CF557FD27C08A859B85AE
:102A60004817590714F5262F2F5F042F0F5FCE014B
:102A70000E94D914EF8DF8A1808199A5892B8083BC
:102A8000ED8DFE8D908188A5809589238083CE0170
:102A9000612F0E944814CE016F2D0E944814ED8DC5
:102AA000FE8D808198A5892B8083DF91CF911F9126
:102AB0000F91FF900895DF92EF92FF920F931F9373
:102AC000CF93DF93EC01FB017901D02E88859985A6
:102AD00068177907D4F52A853B8542175307ACF56B
:102AE000C701840F951F281739071CF47901E41AD0
:102AF000F50A042F01500E0DCE016E2F2E2F0E94CD
:102B0000D914EF8DF8A1808199A5892B8083ED8D53
:102B1000FE8D908188A580958923808308C0CE0191
:102B2000612F0E944814CE016D2D0E944814089414
:102B3000E108F1088FEFE8168FEFF80681F7ED8DC9
:102B4000FE8D808198A5892B8083DF91CF911F9185
:102B50000F91FF90EF90DF900895DF92EF92FF9238
:102B60000F931F93CF93DF93EC01FA017901D02EDD
:102B70002885398562177307D4F58A859B854817A0
:102B80005907ACF5C701860F971F281739071CF4A2
:102B90007901E61AF70A262F21502E0DCE014E2F6D
:102BA0000E2F0E94D914EF8DF8A1808199A5892B51
:102BB0008083ED8DFE8D908188A58095892380830B
:102BC00008C0CE01612F0E944814CE016D2D0E94D5
:102BD00048140894E108F1088FEFE8168FEFF80623
:102BE00081F7ED8DFE8D808198A5892B8083DF9103
:102BF000CF911F910F91FF90EF90DF900895EF928A
:102C0000FF920F931F93FC017B01A081B18120856E
:102C10003185028513851E960D90BC91A02D60E034
:102C200070E040E050E0FD0119951F910F91FF9079
:102C3000EF900895AF92BF92CF92DF92EF92FF9202
:102C40000F931F93CF93DF936C015901E801DC01CF
:102C500018962D913C911997621773070CF057C085
:102C60001A96ED91FC911B974E175F070CF04FC021
:102C7000C501860F971F281739071CF45901A61A9A
:102C8000B70ACE01840F951FE817F9071CF4EF016E
:102C9000C41BD50B262F21502A0D042F01500C0FD9
:102CA000C6010E94D914D6015F96ED91FC919097D0
:102CB000808199969C919997892B80835D96ED915F
:102CC000FC915E97908198968C9180958923808362
:102CD0008E010EC0C6016F2D0E944814C6016E2DD4
:102CE0000E94481421971C161D06A4F301501040A1
:102CF0001016110614F4E501F6CFD6015D96ED919C
:102D0000FC915E97808198969C91892B8083DF91BE
:102D1000CF911F910F91FF90EF90DF90CF90BF90D8
:102D2000AF90089550E04C7F507033E0440F551F32
:102D30003A95E1F730E093E0359527959A95E1F7DC
:102D4000422B532B70E0687F7070762F6627462BDE
:102D5000572BCA010895662311F460E201C061E2B5
:102D60000E9488140895AF92BF92CF92DF92EF92A3
:102D7000FF920F931F93CF93DF935C01FB01EB0155
:102D80002196D49031C08E010F5F1F4FFE016491D8
:102D9000C5010E94881478010894E11CF11CF80117
:102DA000C4900C2D0F77E701102F08C0FE0121966B
:102DB000E491C5016E2F0E94B11411501123B1F797
:102DC000E701C00FD11DC7FE0EC0FE018491682F20
:102DD00070E06F3F710511F464EF71E0219680E0BF
:102DE00090E00E94E707DA94DD2069F6DF91CF9149
:102DF0001F910F91FF90EF90DF90CF90BF90AF9019
:102E000008950F931F93CF93DF93EC018B011BA6C3
:102E10001AA68AA161E00E94A20889A161E00E942D
:102E2000A208E9A14E2F50E0FA01EE5CFE4FE491BA
:102E3000F0E0EE0FFF1FE250FF4F859194919E8FBF
:102E40008D8FEAA12E2F30E0F901EE5CFE4FE49168
:102E5000F0E0EE0FFF1FE250FF4F8591949198A391
:102E60008F8F48585E4FFA01849188A728583E4FAB
:102E7000F901849189A7888D882361F00E942C181C
:102E800080E00E941B1881E00E940D1880E00E94E3
:102E900016183DC08DA161E00E94A2088CA161E0DE
:102EA0000E94A208EDA14E2F50E0FA01EE5CFE4F09
:102EB000E491F0E0EE0FFF1FE250FF4FA591B491B7
:102EC000BC8FAB8FECA12E2F30E0F901EE5CFE4FF2
:102ED000E491F0E0EE0FFF1FE250FF4F85919491D7
:102EE0009A8F898F48585E4FFA0194919FA3285872
:102EF0003E4FF90184918EA38C91909598239C93D9
:102F0000E98DFA8D90818EA1809589238083ED8D46
:102F1000FE8D908188A58095892380838BA188234D
:102F200009F161E00E94A2088BA161E00E945509AD
:102F300064EF71E080E090E00E94E7078BA160E021
:102F40000E94550964EF71E080E090E00E94E7077D
:102F50008BA161E00E94550964EF71E080E090E090
:102F60000E94E7070115110521F0CE01B8010E946A
:102F7000B316DF91CF911F910F9108951F93CF93B7
:102F8000DF93EC01162F6FEF76E00E9401171123FB
:102F900051F4CE016AE377E00E94B31682E08AA77B
:102FA00081E08BA705C0CE0167E477E00E94B316ED
:102FB000CE0164E577E00E94B316123041F4CE01F1
:102FC00066E30E948814CE0160EC0E94B1141F8B4E
:102FD000DF91CF911F910895DF92EF92FF920F93AF
:102FE0001F938C01F62EE42ED22E60E870E040EAAA
:102FF00050E00E94150F85E692E0F80191838083EE
:10300000F1A2E2A2D3A281E0808F15A214A21F91A7
:103010000F91FF90EF90DF900895882319F48CB5FD
:10302000806202C08CB58F7D8CBD08959CB5937F66
:10303000982B9CBD08952CB5382F33702C7F322BE4
:103040003CBD2DB590E095958795959587958170B8
:103050002E7F822B8DBD089584E361E00E94A2083B
:1030600083E361E00E94A20885E361E00E94A20878
:1030700084E360E00E94550983E360E00E94550903
:1030800085E361E00E9455098CB580618CBD8CB5EB
:1030900080648CBD0895F8940C94BC18629FD00194
:1030A000739FF001829FE00DF11D649FE00DF11D03
:1030B000929FF00D839FF00D749FF00D659FF00DB2
:1030C0009927729FB00DE11DF91F639FB00DE11D9F
:1030D000F91FBD01CF0111240895AA1BBB1B51E1AB
:1030E00007C0AA1FBB1FA617B70710F0A61BB70B78
:1030F000881F991F5A95A9F780959095BC01CD011D
:10310000089597FB092E07260AD077FD04D0E5DF46
:1031100006D000201AF4709561957F4F0895F6F758
:10312000909581959F4F0895A1E21A2EAA1BBB1B73
:10313000FD010DC0AA1FBB1FEE1FFF1FA217B30783
:10314000E407F50720F0A21BB30BE40BF50B661F99
:10315000771F881F991F1A9469F76095709580955D
:1031600090959B01AC01BD01CF010895EE0FFF1FAB
:0C3170000590F491E02D1994F894FFCF25
:10317C0043757272656E7420506F736974696F6EEB
:10318C003A2000706C61796572322000706C617944
:10319C006572313A20003A005A00FFFFFFFF3A00F7
:1031AC005A003A005A00E0070100000000860CDECD
:1031BC000D1A0C4B0C2B0C740C00000000EB13DEE6
:1031CC000DDD0D7811781294122412B312E8124707
:1031DC001400000000EB13DE0D1D1578115B15AD0E
:0A31EC001524121A16FF15AB160089
:00000001FF
